:020000040000FA
:1000000018D20020090400001104000013040000AD
:10001000150400001704000019040000000000008F
:100020000000000000000000000000001B040000B1
:100030001D040000000000001F0400002104000057
:1000400023040000BD310000FD480000230400002F
:10005000B5390000230400008925000023040000B6
:100060002304000039480000230400003D32000052
:1000700023040000230400002304000023040000E4
:1000800023040000230400002304000023040000D4
:1000900023040000230400002304000023040000C4
:1000A00023040000230400002304000023040000B4
:1000B00023040000230400000000000000000000F2
:1000C0002304000023040000230400002304000094
:1000D0006D32000023040000230400000000000033
:1000E0000000000000000000000000000000000010
:1000F0000000000000000000000000000000000000
:1001000000000000000000000000000000000000EF
:1001100000000000000000000000000000000000DF
:1001200000000000000000000000000000000000CF
:1001300000000000000000000000000000000000BF
:1001400000000000000000000000000000000000AF
:10015000000000000000000000000000000000009F
:10016000000000000000000000000000000000008F
:10017000000000000000000000000000000000007F
:10018000000000000000000000000000000000006F
:10019000000000000000000000000000000000005F
:1001A000000000000000000000000000000000004F
:1001B000000000000000000000000000000000003F
:1001C000000000000000000000000000000000002F
:1001D000000000000000000000000000000000001F
:1001E000000000000000000000000000000000000F
:1001F00000000000000000000000000000000000FF
:1002000000F002F800F0B4F80AA090E8000C824474
:100210008344AAF10107DA4501D100F0A9F8AFF251
:10022000090EBAE80F0013F0010F18BFFB1A43F0D4
:10023000010318478C860000AC860000103A24BFEA
:1002400078C878C1FAD8520724BF30C830C144BF3B
:1002500004680C607047000000230024002500267D
:10026000103A28BF78C1FBD8520728BF30C148BF19
:100270000B6070474B1C012B98BF70472DE9F003B2
:10028000911C9B08B1F80480B1F802900A8831F8FB
:1002900002CC8044814402448444D9F80070D8F8E8
:1002A00000601568DCF80040C9F80060C8F800700C
:1002B000CCF800501460D9F80470D8F80460556880
:1002C000DCF80440C9F80460C8F80470CCF80450A5
:1002D000546008315B1ED5D1BDE8F00370474B1C5C
:1002E000012B98BF70472DE9F003911C9B08B1F8D2
:1002F0000480B1F802900A8831F802CC00EB58086B
:1003000000EB590900EB520200EB5C0CD9F80070CD
:10031000D8F800601568DCF80040C9F80060C8F83B
:100320000070CCF80050146008315B1EDFD1BDE8CE
:10033000F0037047642900F0B787782900F0F08750
:10034000732901F0BF82002070471FB506F05EFFE1
:100350009DE8030001F0FCF901F04EFB04000020D1
:10036000002106F03DFF401C60601FBD10B510BDB0
:1003700001F098FB1146FFF7E8FF05F0E7F901F0FF
:10038000B6FB03B4FFF7F2FF03BC01F02BFB000048
:10039000401E00BF00BF00BF00BF00BF00BF00BFC6
:1003A00000BF00BF00BF00BF00BF00BF00BF00BF55
:1003B00000BF00BF00BF00BF00BF00BF00BF00BF45
:1003C00000BF00BF00BF00BF00BF00BF00BF00BF35
:1003D00000BF00BF00BF00BF00BF00BF00BF00BF25
:1003E00000BF00BF00BF00BF00BF00BF00BF00BF15
:1003F00000BF00BF00BF00BF00BF00BF00BF00BF05
:1004000000BFC5D170470000094880470948004730
:10041000FEE7FEE7FEE7FEE7FEE7FEE7FEE7FEE7B4
:10042000FEE7FEE704480549054A064B7047000011
:1004300035450000010200001892002018D200206B
:1004400018B2002018B200209FED3D0A5FEA920C1E
:1004500057D000BFD0ED000A90ED011A0B1D60EEE1
:10046000A00A083041EE010AF5EEC00AF1EE10FADA
:10047000A6BFB1EEE01A81ED001A81ED000AD0EDC1
:10048000000A90ED011A191D60EEA00A083041EE35
:10049000010AF5EEC00AF1EE10FAA6BFB1EEE01ABD
:1004A00083ED001A83ED000AD0ED000A90ED011AE9
:1004B0000B1D60EEA00A083041EE010AF5EEC00AFD
:1004C000F1EE10FAA6BFB1EEE01A81ED001A81ED4F
:1004D000000A90ED001AD0ED010A191D21EE011A53
:1004E000083000EEA01AB5EEC01AF1EE10FAA6BF61
:1004F000F1EEC10AC3ED000A83ED000ABCF1010C64
:10050000A8D112F0030208BF704700BFD0ED000A67
:1005100090ED011A0B4660EEA00A091D083041EE6D
:10052000010AF5EEC00AF1EE10FAA6BFB1EEE01A2C
:1005300083ED001A83ED000A521EE7D170470000D8
:10054000000000002DE9F04106462DED028B8C469F
:100550000088736801EB80044508274601EB85009D
:1005600004EB85025FEA95087DD000BFD1ED003A2B
:10057000D4ED001A91ED012A94ED013A73EEA16ACF
:1005800091ED024A91ED031AD4ED022AD4ED035AFB
:1005900090ED008A90ED017A90ED020A90ED036AE9
:1005A00092ED005AD2ED014AD2ED027AD2ED030A61
:1005B000C1ED006A72EE036A73EEE13A74EEC71A97
:1005C000C1ED016A74EE226A74EE622A37EEC04A07
:1005D000C1ED026A71EE256AC1ED036A72EE436AEB
:1005E00031EE652A38EE051A35EE483A80ED001AEC
:1005F00037EE241A80ED011A30EE271A80ED021A28
:1006000036EE201A80ED031A30EEC61A93ED000A7A
:10061000D3ED010A63EE804A26EEA05A66EE805AB8
:1006200063EEA03A74EE854A75EEE33AC4ED004AF3
:1006300063EE204AC4ED013A61EE803A61EEA00A11
:1006400023EE000A74EEE31A30EE800AC2ED001ABF
:1006500082ED010A93ED020AD3ED030A62EE803ABD
:1006600022EE203A00E024E062EEA01A22EE002AF8
:1006700073EE832A1030103172EE611AC4ED022A33
:1006800024EE202AC4ED031A61EE001A61EE200A5E
:1006900024EE000A103332EE611A103430EE800A74
:1006A00082ED021A82ED030A1032B8F101087FF4DC
:1006B0005DAF294602236046726800F0D5FA726881
:1006C0002946BDEC028B3846BDE8F041022300F01C
:1006D000CBBA2DE9F34F2DED048B87B00B98008832
:1006E000470801EB870000EB870606EB8705CDE99D
:1006F0000056DDF82C80A5F1040C0CEB8703CDE946
:1007000002014FEA5709D8F804800427CDE904977D
:10071000D1ED000A96ED000A90ED011A95ED013A2F
:1007200070EE802A70EEC03AD1ED010A96ED010A12
:10073000041F321F30EE802A70EEC01A31EE230AF9
:10074000D0ED000A32EE415A33EEC11A30EE434A80
:1007500071EEE04A95ED000A70EEA11A35EE435AAB
:1007600074EE805A72EEE04A70EEA20A71EEC01A80
:1007700031EE031A74EEC04A30EE800A062708F103
:10078000080A81ED000A90ED010AD5ED010A08F191
:10079000100B30EE020A08F1180830EE200A81ED45
:1007A000010A80ED004AC0ED015AC6ED004A86ED0F
:1007B000015A85ED001AC5ED011ADDF810900830D8
:1007C000083108350836A9F102095FEA590900F035
:1007D000078100BFD1ED000A96ED000AD0ED011AA5
:1007E000D5ED014A30EE802A30EEC05AD1ED010A33
:1007F00096ED010A70EE802A30EEC01A31EE850ABD
:10080000D5ED000A30EE644A90ED000A31EE403A30
:1008100030EE011A73EE205A32EE403A30EE020A00
:1008200031EE601A73EE603A30EE200A32EEE13AB1
:1008300075EE611A81ED000A90ED010AD5ED010A0D
:1008400033EE643A30EE220A71EEA41A30EE200A3A
:1008500081ED010AD4ED002ADCED004A54ED010AD5
:100860001CED010A32EEA47A32EEE49A72EEE42A2A
:1008700052ED018A70EE807A30EEC02A72EEE82ADC
:10088000D2ED000A93ED000A13ED018A30EEC05A52
:1008900072EE886A77EEE82A35EE026A32EEC85ABE
:1008A00077EE602A72EEC04A70EEC02A70EE870AB8
:1008B00072EEC22A30EE800A38EE682A84ED000A11
:1008C00012ED010A53ED010A32EE492A30EE270AF1
:1008D00030EE200A04ED010A9AED000ADAED010A71
:1008E00064EE007A25EEA07A65EE805A24EE204A66
:1008F00037EE877A35EEC44A80ED007A80ED014A02
:1009000026EEA04A66EE005A66EE200A26EE800A1F
:10091000083034EE654A083130EE800A82ED004A34
:10092000083C02ED010A9BED000ADBED010ADDF84F
:1009300014E023EE804A63EE205A23EE003A63EE81
:10094000A03A083A34EE254A0BEB8E0B33EE633AAD
:1009500086ED004A0AF1080A86ED013AB1EE643AE2
:10096000083663EE003A25EE203A25EE000A64EEE2
:10097000A00A33EEC33A30EEC00A8CED003A0CED1B
:10098000010A98ED000AD8ED010A08EB870861EE2C
:10099000803A21EE203A21EE001A61EEA01AACF165
:1009A000080C33EE833A31EE611A85ED003A62EEBF
:1009B000801A85ED011A22EE201A62EEA00A22EEBC
:1009C000000A083531EE611A30EE800A83ED001A14
:1009D00003ED010A083BB9F101097FF4FBAE00BF4A
:1009E000D1ED000A96ED000A91ED011AD0ED015A01
:1009F00030EE802A70EEC00A96ED010A95ED015A9C
:100A0000042371EE001A71EE404A35EEA00A90ED13
:100A1000001A31EEE54A70EEE50A30EE453A95ED02
:100A2000000A34EE454A30EE855A74EEC12A72EE61
:100A3000413A71EE240A31EE021A72EE802A73EE08
:100A4000C03A70EEC00A31EE000A81ED000A90ED66
:100A5000010A95ED011A30EE210A30EE010A81ED0E
:100A6000010A9AED000A9AED011A63EE001A22EECD
:100A7000812A22EE800A23EE011A71EE821A30EEEC
:100A8000410AC0ED001A80ED010A9BED000A9BEDC2
:100A9000011A63EE801A24EE012A24EE000A23EEE6
:100AA000811A71EE821A30EE410AC6ED001A86ED07
:100AB000010A98ED010A98ED001A60EE801A25EE01
:100AC000012A60EE810A25EE000A32EE211A30EE8C
:100AD000C00A85ED001A85ED010A0B984268DDE930
:100AE000030100F0C1F80B980423049942680298AE
:100AF00000F0BAF80B98042304994268019800F0BA
:100B0000B3F80B98049904234268009807B0BDEC31
:100B1000048B02B0BDE8F04F00F0A6B82DE9F0411B
:100B20000488984617460D460646012A20D1281DFE
:100B3000F4B1A0F1080114F0010F06D091ED020A02
:100B4000B1EE400A81ED020A08315FEA540C0FD081
:100B500091ED020AB1EE400A81ED020A91ED040A1C
:100B6000B1EE400A81ED040A1031BCF1010CEFD165
:100B7000B4F5807F1BD008DC102C13D0202C16D0AD
:100B8000402C19D0802C0DD01CE0B4F5007F13D080
:100B9000B4F5806F06D0B4F5006F08D0B4F5805F6F
:100BA0000AD00FE029463046FFF7CCFC0AE0294680
:100BB0003046FFF78EFD05E0214601232846726886
:100BC00000F052F8B8F1000F04D0B1892846B2689D
:100BD000FFF750FB012F18BFBDE8F08100EE104A6F
:100BE000B7EE001A002CF8EE400A81EE200A08BF8A
:100BF000BDE8F081A5F1080014F0010F0ED0D0ED92
:100C0000020A60EE800AC0ED020AD0ED030AF1EE9E
:100C1000600A60EE800AC0ED030A0830610808BF70
:100C2000BDE8F081D0ED020A60EE800AC0ED020A54
:100C3000D0ED030AF1EE600A60EE800AC0ED030A0F
:100C4000D0ED040A60EE800AC0ED040AD0ED050A7A
:100C5000F1EE600A60EE800AC0ED050A1030491E10
:100C6000E0D1BDE8F08100002DE9FF4F2DED108BA4
:100C700082B09FEDFEFA0B461C46DB084FF0000CDD
:100C80000CEB030505EB030808EB030909EB03066E
:100C900006EB030A00EBCC0700EBC60697ED001A43
:100CA000D6ED000A0AEB030B00EBC50500EBCA0A00
:100CB00031EE200A71EE601A95ED002ADAED000A95
:100CC0000BEB030E00EBC80832EE201A00EBCB0B47
:100CD00032EE602AD8ED002ADBED000A00EBC909EC
:100CE00000EBCE0E99ED003A9EED004A72EEA03A6E
:100CF00072EEE02A73EE040A33EE443A70EE636A51
:100D000070EE233A31EE600A71EE200A33EEA01A3B
:100D100073EEE00A87ED001AC6ED000A97ED011A9E
:100D2000D6ED010AD5ED013A98ED014A31EE206A7F
:100D300071EE600A9AED011A99ED015A73EE814A3B
:100D400073EEC13A9BED011A34EE017A34EE411A8A
:100D50009EED014A75EE045A35EE444A36EE475A86
:100D600036EE076A34EEE57A74EEA54A76EE245A3A
:100D700076EE644AC7ED015AC6ED014A76EE874A1F
:100D8000C8ED004A76EEC74ACBED004A75EE404A00
:100D900035EE000AC8ED014A8BED010A32EE430A36
:100DA00032EE032A20EE0F0A62EE0F4A33EEC42A17
:100DB000A4448C4522EE0F3A33EE842A30EEC34A27
:100DC00062EE0F3A30EE833A31EEC02A31EE800AFD
:100DD00071EE630A31EE231A72EEE41A72EEA42A5F
:100DE00070EE013A30EE410AC5ED003A8EED000A90
:100DF00032EE200A8AED000A32EE600A89ED000A1E
:100E000033EE620A85ED010A33EE220A8EED010A05
:100E100034EE610A8AED010A34EE210A89ED010AF5
:100E2000FFF42EAF082B3FBF02B0BDEC108B04B017
:100E3000BDE8F08F4FF0000CCDF804C04FF0010C6E
:100E4000CDF800C0DDF804C0159DAC444FEA8C0518
:100E500005EB0C07CDF804C007EB0C094FEA4C0872
:100E600008EB0C0609EB0C0A02EBCC0C02EBC808F1
:100E700002EBC60602EBC50502EBC70702EBC90988
:100E800002EBCA0A9CED00DA9CED018AD8ED00CA9B
:100E900096ED00CAD5ED00BA97ED00BAD9ED00AADB
:100EA000DAED008AD8ED017A96ED01AA95ED017A86
:100EB000D7ED016A99ED016ADAED019ADDF800C01B
:100EC0000CEB0307FD1805EB030A0AEB030808EB1C
:100ED000030606EB030B00EBCC0900EBC808D9EDC9
:100EE000000A98ED000A00EBC70700EBC606D7ED35
:100EF000001A96ED001A70EE803A0BEB030E70EEBE
:100F0000C00A31EE810A00EBC50500EBCB0B31EED8
:100F1000C11AD5ED001A9BED002A00EBCA0A00EBBE
:100F2000CE0E31EE824A71EEC21A9AED002ADEED43
:100F3000002A32EE223A32EE622A73EEC42A73EEAF
:100F4000843A30EE435A30EE030A33EE803A73EEC1
:100F5000C0DA89ED003A99ED010A98ED013AD7ED32
:100F6000013A95ED014A70EE03EA30EE433A96ED10
:100F7000010A9AED01EADEED014A33EE809A73EE42
:100F8000C03A9BED010A74EE005A34EE404A3EEE40
:100F9000240A7EEE644A3EEEE5EA7EEEA55A79EE3C
:100FA00040EA39EE009A32EEAE0A72EEEE2A75EEA3
:100FB00089EA35EEC99A7EEE455AC9ED01EA3EEE60
:100FC000055A2BEEADEA67EE09EA2BEE899A67EE39
:100FD0002DDA3EEE2EEA39EE6D9A88ED00EA67EEE4
:100FE000A5DA88ED019A2CEE809A6CEEA55A27EED0
:100FF000800A39EE2D9A35EEC00A85ED009A66EE2C
:10100000055A85ED010A2AEEA20A2AEE855A66EEF5
:10101000222A30EE250A8BED000A35EE620A73EEC5
:10102000A42A8BED010A31EE420A31EE021A33EEA8
:10103000E42A62EE8F3A20EE0F0A21EE0F1A22EE1A
:101040000F2A70EEC02A30EE800A71EEC10A71EEEE
:10105000811A33EE421A33EE022A34EE633A34EE4A
:10106000234A70EE043A30EE444A01E0F304353F7F
:1010700072EE834A72EEC32A32EE613A32EE210AF0
:1010800071EE601A71EE200A2DEE232A28EE031A63
:101090002DEE033A68EE233AA44432EE011A28EE0C
:1010A000842A8C4587ED001A33EE631A29EE843AC0
:1010B00087ED011A29EE801A28EE800A32EE011A15
:1010C00030EE430A26EEA42A8EED001A8EED010AB8
:1010D0002BEE240A26EEA11A6BEE211A30EE010A3D
:1010E0002CEE221A86ED000A31EEC20A6AEE221AAE
:1010F00086ED010A2AEE200A6CEE200A31EE000A83
:101100008AED000A30EEE10A8AED010AFFF4D8AE5A
:10111000DDF800C00CF1010CCDF800C063453FF6CE
:1011200091AEDDF854C04FF6FF7404EACC0CCDF854
:1011300054C0072B3FF6A0AD02B0BDEC108B04B03D
:10114000BDE8F08F70B5064600F0E2FA056806F1DA
:101150000B0020F00704B4429CBF002070BD2B465A
:101160006A68BAB11068A04210D304F1080188423D
:101170003CBF5068586007D351681019416011682E
:10118000091B016058601460101D70BD1346526841
:10119000002AE7D12146284600F0C6FA0028DED111
:1011A00070BD70B50446051F00F0B2FA0068002C4F
:1011B00014BF446870BD002C18BFAC423CBF204631
:1011C0006468F8D301680A18AA4218BF456003D1C1
:1011D0002A6805461144016028684119A1421CBFD4
:1011E0006C6070BD6168696021680844286070BDEA
:1011F0000FB4044910B503AA029800F067FB10BCB5
:101200005DF814FB7C00002070B504468569006819
:10121000C10601D5302600E02026C00707D070BDEA
:10122000D4E9012130469047206A401C20626D1E9F
:10123000F6D570BD70B5044685690078C00707D142
:1012400070BDD4E9012120209047206A401C206213
:101250006D1EF6D570BD70B50C460546012A05D049
:101260002878800600D5EA69002302E0012305E022
:101270005B1C934202D2E05C0028F9D1A869E61811
:10128000C01AA861286A184428622846FFF7BCFFE4
:1012900004E0D5E9012114F8010B9047B442F8D3DA
:1012A0002846FFF7C7FF70BD2DE9F0410646002430
:1012B00010687529314616A510D0AFF300800028BC
:1012C00002DA404213A507E031688A0701D512A56A
:1012D00002E0490704D511A5012401E0AFF3008025
:1012E00000210A2206F1240709E0B0FBF2FCB0FB62
:1012F000F2F302FB1C00303078541846491C0028D9
:10130000F3D123462A463046BDE8F04100F056BAF4
:10131000000000002D0000002B0000002000000055
:1013200070B504460D4621461068AFF30080218851
:10133000090502D50F4A7A4402E00E4A7A440E3279
:10134000002104F1240305E000F00F060009965D7A
:101350005E54491C0028F7D120780023000704D5EB
:10136000702D02D009B1022311322046BDE8704031
:1013700000F024BADE7400002DE9F05F89460446CF
:101380004FF0000ADFF824B1FB44C0F820A020464B
:10139000E168884700287DD0252806D0D4E90121BE
:1013A0009047206A401C2062F1E700255F462046F6
:1013B000E16888472028064607DB312E05D2B81998
:1013C00010F8200C08B10543F1E7A80701D525F076
:1013D0000405C4F81CA00027C4F818A02A2E09D0C0
:1013E000304603F065FC38B304EB8708303EC8F89C
:1013F000186019E059F8041B204604EB870291613C
:10140000E1688847012F064618D1E069002820DAF4
:1014100025F020051DE0D8F8180000EB800006EB51
:1014200040003038C8F818002046E1688847064672
:1014300003F03EFC0028EED1012F0AD02E2E08D159
:101440002046E16888477F1C0646022F45F02005AC
:10145000C4DBA069002803DA404245F00105A06121
:10146000E80701D025F01005A6B1A6F14100192822
:1014700002D8203645F400654A46314620462560AC
:101480004D46FEF757FF60B1012807D0ED1D25F04E
:10149000070000E007E000F1080978E705F104091A
:1014A00075E730467AE7206ABDE8F09FB474000023
:1014B00070B5064600F030F90468054630460A2249
:1014C000002100F002F82C6070BD2DE9F047914634
:1014D0000F4680460446002614F8015B2DB100F04B
:1014E0000FF90068405DC007F6D12B2D02D02D2DDD
:1014F00018D0641E4A463946204600F0F9F927B153
:101500003968A14201D1C7F800804FF0020471058B
:101510000BD54042002803DD00F0FEF80460A00770
:10152000BDE8F08746F48066E4E70028F8DA00F0CA
:10153000F3F804606FF00040F2E70000014A00F0A9
:1015400027BA00008400002030B505460B462A4625
:1015500013F8014B12F8010B08B1A042F8D01CB1EE
:10156000002802D06D1CF1E7284630BD40EA010397
:1015700010B59B070FD1042A0DD310C808C9121F3C
:101580009C42F8D020BA19BA884201D9012010BD76
:101590004FF0FF3010BD1AB1D30703D0521C07E043
:1015A000002010BD10F8013B11F8014B1B1B07D1A7
:1015B00010F8013B11F8014B1B1B01D1921EF1D118
:1015C000184610BD10B5203AC0F00B80B1E8185095
:1015D000203AA0E81850B1E81850A0E81850BFF41D
:1015E000F5AF5FEA027C24BFB1E81850A0E81850BC
:1015F00044BF18C918C0BDE810405FEA827C24BF10
:1016000051F8043B40F8043B08BF7047D20728BF9D
:1016100031F8023B48BF11F8012B28BF20F8023BEC
:1016200048BF00F8012B70474FF0000200B5134689
:1016300094469646203922BFA0E80C50A0E80C50F2
:10164000B1F12001BFF4F7AF090728BFA0E80C50A3
:1016500048BF0CC05DF804EB890028BF40F8042B9C
:1016600008BF704748BF20F8022B11F0804F18BF09
:1016700000F8012B704700004FF0013C50F8042B9C
:1016800051F8043B9A4221D1A2EB0C03934313EA95
:10169000CC1317D150F8042B51F8043B9A4215D1C2
:1016A000A2EB0C03934313EACC130BD150F8042B99
:1016B00051F8043B9A4209D1A2EB0C03934313EA7D
:1016C000CC13DBD04FF00000704700BFD01A01BA36
:1016D000B1FA81F101F0180122FA01F0CB40C1F119
:1016E0002001DBB2C0B2C01A2CFA01F3D11A914327
:1016F00011EAC311E6D17047704770477047000088
:1017000010B500F079F9001D10BD00BFD55A0000DA
:1017100000487047C091002000487047B8910020F1
:10172000704770477047704738B504460A46002036
:101730006946AFF30080002808BF38BD0246009913
:10174000204600F05DF9012038BD012000F084B989
:10175000F8B5AFF30080054600200C46102000BF0E
:101760000646A819A0420DD9324669460020AFF3BB
:101770000080070008BF00F06FF90098A04218BF72
:101780000546C419FFF7C4FF05600746F01D20F0A9
:1017900007004619284600F00AF8B44208BFF8BD11
:1017A000A21B31463868BDE8F84000F029B9002195
:1017B0000160C0E901107047102070472DE9F04723
:1017C0000D4699469246044600F1240801688806B1
:1017D00004D5E06921F01001216000E00120A84259
:1017E00001DD471B00E00027A1697A1902EB09001F
:1017F000081AA0612078C00602D42046FFF704FD35
:10180000002608E0D4E901211AF806009047206A72
:10181000401C761C20624E45F4DB2078C0060AD5B9
:101820002046FFF7F1FC06E0D4E901213020904783
:10183000206A401C2062381EA7F10107F4DC07E093
:10184000D4E9012118F805009047206A401C206265
:10185000281EA5F10105F3DC2046FFF7EBFC2078FC
:10186000000602D50220BDE8F0870120FBE700005A
:1018700001694A1C02610878704700B58FB0CDE954
:1018800001310021059105497944CDE90310114644
:101890006846FFF771FD0FB000BD0000E5FFFFFFD8
:1018A00010B5436913B1AFF3008001E0FFF7D3FC3B
:1018B000012010BD127800F124010A7000224A7044
:1018C0000122EDE711684FF0FF32E9E7074B70B5F1
:1018D0000D467B44FFF7D1FF0446284600F0B8F8D8
:1018E00010B14FF0FF3070BD204670BD7F3C00004E
:1018F0002DE9F05F824615468B4600270AF1010468
:10190000B9460078302801D09DB113E014F8010BDE
:101910000127782803D0582801D045B10AE00DB13D
:10192000102D07D1002714F8010B102502E008251F
:1019300000E00A250026B0460EE005FB080005FB86
:1019400006F101271FFA80F801EB1046B6F5803F3B
:1019500000D3B94614F8010B294600F06BF80028B3
:10196000EBDABBF1000F05D00FB1641E00E0544666
:10197000CBF80040B9F1000F06D0FFF7CDFE0221F1
:101980000160C81EBDE8F09F48EA0640FAE7000083
:101990002DE9F04115460E46040002D12C6804B929
:1019A0000BA4204600F06FF80444207870B127465D
:1019B0003146384600F057F80444207810B1002032
:1019C00004F8010B38462C60BDE8F0810027F9E7E8
:1019D0000000000008B569468DF800000320ABBE8A
:1019E00008BD000001491820ABBEFEE7260002003A
:1019F00000487047B891002000487047D8910020F7
:101A0000034640688C46002818BF88423CBF034606
:101A10004068F8D318681844884207D00CF10300D6
:101A200020F00700001D411A521A0146081D0A60E5
:101A3000FFF7B7BB3A2800D2303820F02002412A05
:101A400001D3A2F13700884201D34FF0FF30704735
:101A5000007B00F08000704710B500F057F8BDE83B
:101A6000104000F04DB830B503461D781DB10A4650
:101A700003E0AC4201D1181A30BD12F8014B002C22
:101A8000F7D15B1CF1E730B503461D783DB10A463E
:101A900012F8014B1CB1AC42FAD15B1CF5E7181AE5
:101AA00030BD70477546FFF7A3FFAE460500694697
:101AB000534620F00700854618B020B5FEF7B2FC6B
:101AC000BDE820404FF000064FF000074FF000083F
:101AD0004FF0000B21F00701AC46ACE8C009ACE8C0
:101AE000C009ACE8C009ACE8C0098D46704710B524
:101AF0000446AFF300802046BDE81040FEF741BC2D
:101B0000002801D0FFF76EBF7047000010B5012814
:101B100005D0002103A000F021F8012010BD09A18B
:101B2000F8E7000053494752544D454D3A204F7550
:101B300074206F662068656170206D656D6F7279C5
:101B4000000000003A2048656170206D656D6F727D
:101B50007920636F727275707465640070B50546A4
:101B60000C460A2000E06D1CFFF734FF35B12878E1
:101B70000028F8D102E0641CFFF72CFF14B1207894
:101B80000028F8D1BDE870400A20FFF723BF00000D
:101B900010B50446214602A0FFF72AFB10BD000045
:101BA00025730D0A000000002DE9F0438BB00646B6
:101BB0000F4615464FF0000828A13046FFF75CFDA0
:101BC00020B92948007908B14FF0010800BF4FF053
:101BD0000F093046FFF7DCFF31E0642000F0FAFA2D
:101BE00000F06CFE03282AD1202103A8FFF71CFD7A
:101BF0000020019003A8029001A91C4804F060FF96
:101C00000198D8B1B8F1000F06D139460298FFF714
:101C10009BFC08B1002517E015A10298FFF794FC82
:101C2000041E0AD0607A312802D0607A352804D1A7
:101C30004FF0000801201049087000BF00BFB9F143
:101C40000000A9F10109C8D100BF281EA5F10101BA
:101C5000CDB2BCDC0BB0BDE8F083000041542B4397
:101C60005245473F0000000088000020F08E002011
:101C70002B435245473A00005C00002070B509250F
:101C80000E210F2002F046FE00200E4908700024AD
:101C900011E004EB44030C4E06EB83031A7A04EBC9
:101CA000440306EB8303596804EB440356F823000E
:101CB000FFF77AFF641CAC42EBDB1221132002F029
:101CC00029FE70BD5C000020C87B000010B502F04A
:101CD00089FD04460E480068A04217D00C480460F5
:101CE0000C488079012811D10A48407902280DD08A
:101CF00000210948006800F0080000B901210548EA
:101D0000C078884201D0012010BD00BF0020FBE751
:101D100014000020880000201005005038B50C2168
:101D20003848016000213748383001603548483074
:101D3000016002F065FB0D2132483C3001604FF438
:101D400000303149086004F0B7F8044600BF25466A
:101D500025B100BF284602F0D5FF00BF00BF2B48C9
:101D60000068009003208DF80100294A694601208F
:101D700004F036F8044600BF254625B100BF2846CA
:101D800002F0C0FF00BF00BF0121084603F0CCFFF6
:101D90001F4A6946092004F023F8044600BF25467F
:101DA00025B100BF284602F0ADFF00BF00BF0121F2
:101DB000092003F0B9FF164A69460A2004F010F81A
:101DC000044600BF254625B100BF284602F09AFF11
:101DD00000BF00BF01210A2003F0A6FF0C4A69469C
:101DE0000D2003F0FDFF044600BF254625B100BFCE
:101DF000284602F087FF00BF00BF01210D2003F03D
:101E000093FF38BD08070050080500503C7C0000D7
:101E1000854D000001480078704700000400002054
:101E20000148008880B270470800002070B502F0B9
:101E3000B7FC0446AD48006800F57A70A0427AD23B
:101E4000AA480460AA480078C0B90020A9490860DF
:101E50000120A949886000BFA64800680028FBD07F
:101E60000020A449103908600120A3490860486097
:101E700000BFA048103800680028FAD09F48B0F989
:101E80000200002801DA062070BD9C4949888AB208
:101E90009B4908780978491C994B1970C11700EBC8
:101EA00091718910A0EB8101964B23F8112096487F
:101EB000007803280CDA18469349097830F81100A5
:101EC0009249086090480078401C8F4908700DE0E6
:101ED0008C4800888B49498808448A498988084485
:101EE0008849C98808448010884908608748006884
:101EF00041F2464188421FD285480078052803DD1B
:101F000000208449087004E081480078401C804922
:101F1000087081480078052804DA7F480078401C62
:101F20007D4908707D48007805285CDA7B48007898
:101F3000401C7A49087056E07448006841F28441B8
:101F4000884219D200207249087073480078052829
:101F500003DD01206F49087004E06F480078401CE1
:101F60006D4908706D48007805283CDA6B480078A8
:101F7000401C6A49087036E06448006841F2C34179
:101F8000884212D200206249087063490870634891
:101F90000078052803DD02205E49087023E05F48D1
:101FA0000078401C5D4908701DE000205849087009
:101FB00059490870594908705448006841F2EF5176
:101FC000884203D20320534908700CE04F48006850
:101FD00041F2B171884203D204204E49087002E0F8
:101FE00005204C4908704E4800686430A0427AD2FF
:101FF00000254C48C07808B1012000E000200646CA
:10200000474804604748807968B142480078022810
:1020100003DD44484079022805D13E480078022873
:102020000CDC032D0AD04048007838B100213E482E
:10203000007801F0D9FE00203B4908703B48008839
:10204000401C3A4908803748807908B9002645E0A5
:102050003048007828B1012802D002281CD100BFE6
:1020600000BF2C480078022803D03048008864283C
:1020700003DC2E480088C8280DDD00202B4908808D
:10208000032501260220274981F8B0002148017864
:1020900027A0FFF7ADF820E0002024490880214860
:1020A0004079022818D10021284601F09DFE1E48E3
:1020B000007818B901201C4908700AE01A48007815
:1020C000012803D102201849087002E000201649B7
:1020D000087015480578012600BF00BF3146284624
:1020E00001F082FE00BF0B480078CDE6180000200A
:1020F0000C00002014710040007000400E00002011
:1021000020000020260000202100002008000020E0
:1021100022000020040000202300002024000020D2
:102120001C00002088000020300000202E0000202D
:102130004261747465727920696E642025640A00B6
:102140000021064801600821001F016000210348AA
:10215000001D01600020024908707047247500408E
:10216000040000201A4A92781AB9194A1278052AEE
:1021700000D07047164A82F85C0092F85C20082A6A
:1021800022D2DFE802F0210405060708091500BF86
:1021900000BF00BF00BF00BF50230D4A13610722DC
:1021A0000B4B5A7001229A701A4682F8B0100CE05C
:1021B0000023074A13610A22054B5A7001229A70C4
:1021C0001A4682F8B01000E000BF00BF00BFD0E7A1
:1021D0008800002070B504463220B4FBF0F506E01C
:1021E000322003F049FD02F003FDFFF71FFE281E19
:1021F000A5F10105F4D170BDF0B5ADF6040D0646AC
:102200000F461546002415E028682044B0FBF7F17E
:1022100007FB110036F9100000EE100AB8EEC00AF4
:10222000DFED4E0A80EE201A01A800EB840080ED5D
:10223000001A641CFF2CE7DD012101A800F06CFBF3
:10224000FF2412E001A800EB840090ED000A01A930
:1022500001EBC40080ED000A9FED410A6000401CC4
:1022600001EB800080ED000A641E002CEADA0123F5
:10227000002201A93B48FEF751FC3B4901A802F0AE
:10228000D1F801231A4601A93648FEF747FC00247D
:102290002AE0802C19DA28882044C0F3080033494A
:1022A00001EB800090ED000A01A901EBC400D0ED24
:1022B000000A30EE200A28882044C0F308002B4989
:1022C00001EB800080ED000A0DE001A901EBC400E4
:1022D00090ED000A28882044C0F30800234901EB50
:1022E000800080ED000A641CFF2CD2DD286880305D
:1022F0002860287870BB2868A0F580742346E11711
:1023000004EBD1514912A4EB4121184A02EB8100A0
:1023100000F02CFB1BE0B4FBF7F107FB1142204659
:10232000E11704EBD1514912A4EB41210F4B03EB10
:10233000810191ED000ADFED090A20EE200ABDEED1
:10234000C00A10EE101A09B226F81210641C286890
:10235000A042E0D80DF6040DF0BD000000000047DB
:1023600000000000987C0000F0820020F086002031
:1023700010B50446474890F8B100B0B1454890F810
:10238000B300002808DD434890F8B300401EC1B2F6
:10239000404880F8B31003E000213E4880F8B110B7
:1023A00000213C4880F8B41035E03A4890F8B0007D
:1023B00048B3384890F8B400022803DA354890F85A
:1023C000B200B8B10021334880F8B41090F8B010D2
:1023D00080F8B110002180F8B2103C2C01DB0621FE
:1023E00000E003212B4880F8B3100020294981F830
:1023F000B00010E0274890F8B400401CC1B2254856
:1024000080F8B41007E0234890F8B400401CC1B233
:10241000204880F8B4101F4890F8B500401CC1B2A5
:102420001C4880F8B510014691F8B500C11700EBC3
:102430005171C910A0EBC10129B900F0E1FE00F013
:10244000070114484161134991F8B500C11700EB29
:102450005171C910A0EBC1020E4949698A4203D1EA
:1024600006200C49087010E00A48807868B10948D5
:1024700090F8B00048B9074890F8B10028B900209A
:1024800004498870084640780870024890F8B10006
:1024900010BD00008800002070B53448007860B995
:1024A000334803F04AF9012800D170BD01202F49BB
:1024B000087030492E4804F003FB2F4C2079E8B90E
:1024C000607900F08000C8B100F09AFE00F00105CC
:1024D000284601F021F9002028490860607900F0C1
:1024E0007F0224480068811EA01D01F0ABF8012086
:1024F0002249086000201D49087035E0617988098B
:1025000000EBD0714910A0EB410131B900F078FE29
:1025100000F001001A49086005E019480068C0F1A0
:102520000100174908601648006801F0F5F81548E1
:1025300090F846200F480168204601F083F8607942
:102540000121B1EB901F02D1002008490870617988
:10255000012202EB911000EBD0714910A0EB410178
:10256000627961F38712627100BF9EE74800002024
:10257000048F00204C0000202C8F00202C150040E0
:1025800054000020880000202DE9FE4F0026B146AF
:102590004FF4807002900125002412E0029804F0AC
:1025A00073F940B100BF46480068284018B102984E
:1025B00004F05CF92E436D000298001D80B2029079
:1025C000641C082CEAD34FF4BE7004F05DF948B1E6
:1025D0004FF4BE7004F04AF946F0004600BF394897
:1025E00000688146F0B2F8B1012500241AE005EA3E
:1025F0000600A8B100BF344850F82400C0F30420FE
:10260000074600BF304850F82400C0F30140804620
:10261000204602F0ABFD824641463846D04700BF17
:102620006D00641C082CE2D306F00040002844D062
:10263000002440E025480057401C00283AD0234899
:1026400010F804A02AF0C007384602F0D7FD8046F3
:1026500002F08CFD0190019858B34FEA9A1B0120BB
:1026600000FA07F500BF1A4850F82700C0F30140F0
:10267000804605EA090010B1B8F1020F05D005EA5D
:102680000900A8B9B8F1030F12D1BBF1030F0BD1A8
:10269000B8F1020F01D1032000E00220009038467B
:1026A000009904F0C3F800BF59463846019A904794
:1026B00000BF00BF641C002CBCD0BDE8FE8F000032
:1026C0000463004010050050106500406891002030
:1026D00000070050F0B506464025364FBD6630274E
:1026E000344DC5F890704FF080552F6E314DC5F8C0
:1026F0009C704FF080552B696D69AC1E03FB04F292
:102700002C4DAD6E5D1BAD0802EB85004DE00568FC
:102710006D1C002D44D0274F0568BF6EBD423FD1D0
:102720004568082D01D2456800E00825214FFD6667
:10273000002107E08D1C50F825701E4D703545F8BE
:102740002170491C1B4DED6E8D42F3D8856A0C2D0E
:1027500004D20C27174DC5F890700BE0856AC02D88
:1027600004D9C027134DC5F8907003E0114D876A56
:10277000C5F89070C56A012D04D101270D4DC5F82B
:10278000987003E000270B4DC5F89870056B35B1C4
:10279000056B6D1C1DB1074D076BC5F89C7006E0FD
:1027A000044DAD6EAD08A0EB85009042AFD200BFE6
:1027B000F0BD000088000020F8B504462E48075DF3
:1027C000002F4BD1002601250EE060191221B0FB2D
:1027D000F1F201FB12002849085C022802D1701CAA
:1027E000C6B203E0681CC5B20A2DEEDB00BF9EB97D
:1027F0002249087800EBD0714910214A52F8242070
:1028000091420FDA1F4951F824101E290ADB1D4995
:1028100051F82410462905DC012729461AA0FEF7A5
:10282000E7FC1AE0002601250EE0601B1221B0FB38
:10283000F1F201FB12001049085C022802D1701C61
:10284000C6B203E0681CC5B2042DEEDB00BF26B1A2
:10285000012729460FA0FEF7CBFC00BF11480094CA
:1028600003783A46214610A0FEF7C2FC0FB10120C2
:10287000F8BD0020FCE70000DC82002034000020CE
:102880004C82002094820020466F72776172643A15
:1028900025640A004261636B776172643A25640AB9
:1028A000000000003500002046524D5B25645D3A73
:1028B00025642025642025640A0000000EB5002050
:1028C000029002A80190012000906946104804F08F
:1028D000F7F89DF80800B8B9FFF7A8FA28B90D482D
:1028E0008079012810D102900EE00A4880790128F1
:1028F0000AD1FFF7EBF910B10420029004E001F0D7
:1029000057FD08B1052002909DF808000EBD00009B
:10291000188F0020880000200246002020E079B1B6
:1029200002EB800393ED000A0F4B03EB8003D3ED22
:10293000000A20EE200A02EB800383ED000A0EE07D
:1029400002EB800393ED000A074B03EB8003D3ED0A
:10295000000A80EE201A02EB800383ED001A401C6F
:10296000FF28DCDD70470000BC730000014600203A
:102970000FE001EB800292ED000A074A02EB8002B1
:10298000D2ED000A80EE201A01EB800282ED001ADF
:10299000401CFF28EDDD7047BC7700002DE9F84FA3
:1029A00005460B4690464FF0000BCDF800B00020D6
:1029B000B5F900B0A3F800B05E46DFF8FCB0DBF874
:1029C00000B0DC4683F802B0834683F803B01B1DD9
:1029D000AD1CA8F1010804204FF0010959E0B5F938
:1029E00000B0ABEB0602AD1CDFF8D0B05BF82C10EA
:1029F000002A03DA4FF0080A524201E04FF0000AC1
:102A00000024CF088A4202D30424521A0F444908F2
:102A10008A4203D344F00204521A0F4449088A42FE
:102A200002D344F001040F44BAF1000F01D0F61BA9
:102A300000E03E4416F5004F00DA214EB6F5004F97
:102A400001DB47F6FF7644EA0A04DFF878B05BF86A
:102A500024B0DC44BCF1000F01DA4FF0000CBCF1F3
:102A6000580F01DD4FF0580CB9F1000F01D0009460
:102A700006E0DDF800B04BEA041B03F801BB401C84
:102A8000B9F1000F02D14FF0010B01E04FF0000B44
:102A9000D946B8F1000BA8F10108A0DCB9F1000F8C
:102AA00004D1DDF800B003F801BB401CDFF808B02A
:102AB000CBF800C0BDE8F88F40000020187200007D
:102AC0000080FFFF7C73000005480078002802DCCE
:102AD0000448007808B1012070470020FCE700009E
:102AE00064000020660000201A201A4908600020B7
:102AF000087101211848016000BF88061749086065
:102B000000BF1B2013498860002112480173012176
:102B10001148001D016000BFC8061049086000BFD1
:102B20001C200C49086100210A48017501210A484E
:102B30000830016000BF08070849086000BF0C2189
:102B400005480C300160001D016000200449087038
:102B500070470000FC900020680700500C050050F2
:102B60006600002070B592B00546062D7ED2DFE8E3
:102B700005F07D03075F39380120AE49887100BF39
:102B8000AC48807908B9012000E00020A94988718B
:102B900000F0EAF901F034FCA6488079012806D15A
:102BA000A448C07818B9012000F0BCFE02E0002063
:102BB00000F0B8FE9F48807968B900209D490870F0
:102BC00000F0F6FF002000F0DDFA01F07DFE38B1E4
:102BD00001F0D4FE04E001209649087000F0D2FA1A
:102BE0001EE100BF00F0C0F901F00AFC00F0E0FFB8
:102BF000914802F009FB8F488079012806D18D4861
:102C0000C07818B9012000F08DFE02E0002000F02D
:102C100089FE8848807950B186480078042803DD11
:102C200004208449087002E0012082490870F7E01E
:102C300020210AA8FEF7F8FC002008900AA80990B5
:102C400008A97E4803F03CFF0898002872D07CA1B8
:102C50000998FEF773FC0446002C0ED079A120469B
:102C6000FEF70AFD50B97348C06E00E0AFE00828D7
:102C700003D203210120FFF775FAA6E073A12046D5
:102C8000FEF7FAFC90B96EA10020FEF757FC04464F
:102C900014B12078302804D103210220FFF762FA12
:102CA00093E003210420FFF75DFA8EE069A120463E
:102CB000FEF7E2FCE8BB4FF0FF315E48C0F8BC1005
:102CC000007A5C4981F8B80001215A4880F8B910AF
:102CD0005BA10020FEF732FC04463CB10022114605
:102CE0002046FEF7F2FB534981F8B80054A10020BA
:102CF000FEF724FC04465CB1002211462046FEF794
:102D0000E4FB08B1012100E000214A4880F8B91035
:102D10004BA10020FEF712FC04463CB100221146F4
:102D20002046FEF7D2FB4349C1F8BC004148017878
:102D300001E006E04AE080F8C0100B203D49087031
:102D400043E046A12046FEF797FC00283DD13CA178
:102D5000FEF7F4FB0446002C37D042A12046FEF7D4
:102D60008BFC70B9FF2636A10020FEF7E7FB044676
:102D70001CB12046FEF79CFB86B2F0B201F09FFD2D
:102D800023E03AA12046FEF777FCF0B92948D0F8B5
:102D90009010D0F88C20D0F88830D0F88400CDE99D
:102DA0000532079104902348D0F88010C26F836FDA
:102DB000406FCDE90132039100901E48036FC26E4F
:102DC000D0F898102BA0FEF713FA00BF28E038487F
:102DD000406820B301F0E4FC04463548006801284F
:102DE0001BD13348C068201AB0F57A7F14D9304817
:102DF000C06888B1FFF70EF850B10121002000F043
:102E0000F3FF022000F0CCF900202949486003E0DC
:102E10000121032000F0E8FF00BF00BF00BF00BF9A
:102E200000BF0448807918B9FFF74EFE00B930BFE3
:102E300012B070BD88000020048F0020F08E0020AA
:102E400020000000626F6E6400000000756E626F0B
:102E50006E640000726674657374000064756D7052
:102E600000000000747769730000000064657669F3
:102E70006E666F00446576696365733A253038780D
:102E800020256420253038782025303878202530DA
:102E9000387820253038782025303878202530388B
:102EA00078202530387820253038782025640A00AD
:102EB000149100203EB501F09BFE1C48D0F8AC00F8
:102EC00030B100201949C1F8AC0000F0E7FA29E060
:102ED000FFF7F4FC04462046FFF744FE1348007851
:102EE0001349097888421CD01148007878B9C0216C
:102EF0000E48D0F890004FF4FA520123CDE900209B
:102F00000291002206210BA0FEF772F905E00748A6
:102F1000007810B911A0FEF76BF904480078044955
:102F2000087000BF01F0CFFC3EBD0000880000200B
:102F300036000020506F776572206F6E202D20487C
:102F4000573A25642D25642D25642E20534E443A8E
:102F500025642D25642F25640A000000506F7765D5
:102F600072206F66662E0A0010B50948006800F0EE
:102F7000080030B9012000F0C7FD01200549C870E4
:102F800005E0022000F0C0FD00200249C87010BD1D
:102F90001005005088000020F0B5ADF6044D06463F
:102FA0000D46002760E0002410E036F9140000EE22
:102FB000100AB8EEC00ADFED400A80EE201A0DF2CA
:102FC000044000EB840080ED001A641CFF2CECDD53
:102FD000FF2414E00DF2044000EB840090ED000AA1
:102FE0000DF2044101EBC40080ED000A9FED330AAD
:102FF0006000401C01EB800080ED000A641E002C84
:10300000E8DA012300220DF204412D48FDF786FD88
:103010004FF4807201A90DF20440FDF715FA002467
:103020001DE057B901A800EB840090ED000A254887
:1030300000EB840080ED000A10E0224800EB8400E1
:1030400090ED000A01A800EB8400D0ED000A30EEFC
:10305000200A1C4800EB840080ED000A641CFF2C51
:10306000DFDD06F580767F1CAF429CDB00241EE08E
:10307000144800EB8400D0ED000A00EE105AB8EEC0
:10308000C00A80EE801A0F4800EB840080ED001A21
:103090000C4800EB840090ED000ADFED0B0A20EEF7
:1030A000200A084800EB840080ED000A641CFF2C15
:1030B000DEDD0DF6044DF0BD00000047000000000D
:1030C000987C0000F0820020CDCCCC3F10B50020D1
:1030D00000F01AFD00F04CFD10BD10B500F068FDC9
:1030E000022000F011FD10BD10B5FFF7EFFF00BF8B
:1030F0000648406AB0F5705FFAD3FFF7EEFF034968
:10310000C8693C2101F042F910BD00008800002090
:1031100000F0010121B14FF400010B4A116004E0FD
:103120004FF40001084A121D116000F0020121B1A4
:103130004FF08071044A116004E04FF08071024A40
:10314000121D1160704700000805005040F20D315B
:103150000A480160001F0160001F01600748001D50
:1031600001604FF4000006490860400008608010CC
:10317000091F0860C000091D086070476007005003
:103180000C05005020B14FF00071044A116004E0BA
:103190004FF00071014A121D116070470805005080
:1031A0003EB50446029402A80190012000906946B1
:1031B000014803F0B0FC3EBD188F002000B5002090
:1031C000FFF7A6FF0020094908600948D0F80C0164
:1031D0000848006808490A6801219140084018B170
:1031E00001200649C1F8AC0000BD00000C110040F0
:1031F00000100040301500400814004088000020F6
:1032000001210B4A116000210A4A116001210A4A7A
:10321000116000BF074909680029FBD00449091D56
:1032200008680021034A11600121034A5160704778
:1032300004D5004000D1004000D00040084800689C
:1032400068B10020064908600648D0F84001012016
:103250000449886004480068401C034908607047BE
:1032600040B1004000B000403C00002010B50748CD
:10327000006850B1FFF710F90020044908600448C5
:10328000D0F8400101200249886010BD4041024051
:103290000040024010B51548D0F8980010B114480D
:1032A000006802E01248001D006804460F48406EA6
:1032B000A04219D00D48446601200E49C8600B4851
:1032C000406E000E5A2141EA00200B490860074871
:1032D000406E20F07F40091F086004480146496E97
:1032E000C0F8421001F04AFB10BD00008800002029
:1032F000F8FF070000100040241500402DE9F047BA
:103300000646894692461F4634463C4DA5F19C0030
:10331000C16B2160016C6160B0F8440020810A3407
:10332000287804F8010B687804F8010BA87804F8F1
:10333000010BE87804F8010BA5F19C0090F8460019
:1033400004F8010BA5F19C0090F8470004F8010B6C
:10335000A5F19C0090F8480004F8010BA5F19C0031
:1033600090F8490004F8010B04F8017BA5F19C00DA
:10337000D0F8940018B9A5F19C00C06E08B90120DE
:1033800000E0002004F8010B052F01D0062F0DD11D
:1033900008AD287804F8010B687804F8010BA878C8
:1033A00004F8010BE87804F8010B17E04FF000086F
:1033B00011E012482C3800EB8805287804F8010B3E
:1033C000687804F8010BA87804F8010BE87804F891
:1033D000010B08F10108B8F1080FEADBA4EB0609BC
:1033E00000200749086052464946304600F02AF955
:1033F000012003490860BDE8F08700002401002097
:103400002C15004010B5FFF7A1FE12201C490860E2
:1034100004201C4908600020091D0860091D08607F
:103420001948091D086001201649283108604FF627
:10343000FF701449303108601448091F08601448AF
:10344000406E000E5A2141EA00200E4918310860F2
:1034500010480C49103108600D48406E20F07F4044
:10346000091D08600120074920310860091D086016
:1034700008200949C1F80403012001F0FFFB10BD39
:10348000001200400C150040FF4A02032110010009
:10349000880000205AA5A50000100040F8B560483B
:1034A000007802282AD15E490622486B3C31FEF79B
:1034B0005DF8002821D15A48406B00F10E042078B5
:1034C000C21700EBD2625311554A4C3252F82320F6
:1034D0000146C31700EBD3635B11A0EB4315012337
:1034E000AB401343C21700EBD26255114C4A4C3229
:1034F00042F8253001204B4988608EE0484800782A
:103500000828FAD146490A22486B3C31FEF72EF8CA
:103510000028F2D100906E464148456BE87CC0F32C
:103520008007E87C00F00200022803D001203D491A
:103530008860F8BDA87A3070E87A7070287BB07027
:10354000687BF0703648406B00F1120420783449F3
:1035500091F85C10884232D12078012805D020787B
:10356000022802D02078042829D12D48D0F89C00C8
:103570000099884223D10720294908702D21284825
:10358000016100F1A806287D3070687D7070A87D0B
:10359000B070E87DF0702078012804D10520204922
:1035A00081F85C0003E006201D4981F85C001C489E
:1035B0002178D0F8A8201CA0FDF71AFE2CE0207876
:1035C000174991F85C10884223D12078052802D051
:1035D000207806281DD11248D0F89C000099884216
:1035E00017D1287D3070687D7070A87DB070E87D3F
:1035F000F0700B48D0F8A800009988420CD15FB158
:1036000009200749087021780AA0009AFDF7F0FD0B
:1036100002E001200349886000BF00BF89E7000085
:103620008800002000100040426F6E643A2564203C
:1036300025780A00426F6E6465643A256420257817
:103640000A00000030B504460D46134601202F49FC
:10365000C8600220FFF75CFD2D48006800F07F0085
:10366000984209D12A4848300068092804D32848DC
:10367000483000680B281ED9002026490860012028
:103680002249086100BF234800680028FBD065205C
:1036900093FBF0F100FB11301D49086000201D492B
:1036A0001039086001201949086000BF1948103816
:1036B00000680028FAD016481030006820F47F40D7
:1036C0004A2D01D94A2100E0294640EA012010494B
:1036D000103108600E48001F046000200D49091FCA
:1036E000086008200949C1F808030120886000BF6C
:1036F0000848001F00680028FAD000200549091F6B
:103700000860FFF705FD002030BD000000100040FC
:1037100008150040101100407047000070B50546C4
:103720000E46144601202C49C860FFF7F1FC2B48D7
:10373000006800F07F00A04208D1284848300068A7
:1037400020B126484830006803281ED900202449AB
:10375000086001202049086100BF21480068002856
:10376000FBD0652094FBF0F100FB11401B49086081
:1037700000201B491039086001201749486000BF2C
:103780001748103800680028FAD014481030006834
:1037900020F47F404A2E01D94A2100E0314640EA18
:1037A00001200E49103108600C48001F05600120FF
:1037B0000949886000200A49243108600649C1F897
:1037C000300108200749086000200349C1F80C01B6
:1037D000012001F053FA70BD0010004008150040B0
:1037E000101100400413004010B5434890F8B80091
:1037F00042490978884206D13F4890F8B9004049CB
:103800000978884261D03C4890F8B8003B4908707C
:10381000394890F8B9003A4908703748D0F8BC00E8
:10382000401C20B93448D0F8BC10C16007E000F05B
:10383000B7FF3149D1F8BC1001442F48C16000F0F6
:10384000B7F93048006800F07F002C4909788842B9
:1038500009D12C4848300068092804D32948483049
:1038600000680B2820D9002027490860012027493B
:10387000086100BF244800680028FBD01F4800787A
:10388000652190FBF1F201FB12001E490860002047
:103890001D491039086001201C49086000BF1A4802
:1038A000103800680028FAD00220FFF731FC1448D5
:1038B0000078FFF731FF1048D0F8BC30104802788C
:1038C0000E48017812A0FDF793FC0B480078012800
:1038D00009DD00F065FF0849C968884203D9002165
:1038E0000548C0F8BC100448D0F8BC0008B101205D
:1038F00010BD0020FCE70000880000200000002030
:103900000100002008150040101100400010004088
:1039100052665F546573743A2564202564202564DB
:103920000A00000070B5044600252048006800F435
:10393000803008B1012500E00025A54219D0022001
:103940001B49487100041949083908604FF4FA709E
:10395000FEF740FC4FF400301449091F08604FF493
:10396000FA60FEF737FC4FF4003010490839086060
:103970002546C5B1002640F2DC50FEF72BFC03E0E3
:103980006420FEF727FC761C642E05D207480068E9
:1039900000F480300028F3D0642E02D2FEF76EF9D6
:1039A00000E0002500BF0248457170BD10050050C1
:1039B0008800002010B50024204602F001FB00BF63
:1039C00010BD000000B5002046490860091D0860D0
:1039D000454890F84700012804D002280CD003285D
:1039E0001DD112E002203F490C31086040F26B10FB
:1039F0003C493C3108601BE003203A490C31086027
:103A00007D2038493C31086012E0012035490C31F5
:103A1000086040F26B1033493C31086008E0042034
:103A200030490C3108607D202E493C31086000BFD0
:103A300000BF01202D49C8602D49086000042B49B2
:103A4000C1F804030D212B480160001D01600C2109
:103A500028481038016000212748016003202649CA
:103A6000091F086000212448001D0160FEF768FB63
:103A70001D4890F84800012806D0022809D00328E4
:103A80000CD0042814D10EE001201B49DC31086061
:103A900013E002201849DC3108600EE003201649CB
:103AA000DC31086009E003201349DC31086004E0E0
:103AB00000201149DC31086000BF00BF00200E4922
:103AC000E43108600D480E49086002210C48001DD1
:103AD000016001200849143908600A4988600860BB
:103AE000486000BD04950040880000200090004020
:103AF000009200401C070050147500400E0000208A
:103B00002C7600400070004010B5044624B1012C12
:103B100006D0022C13D10AE080200C49086012E084
:103B200080200A49091F0860400008600BE08020DF
:103B30000649091F08604000091D086003E004A051
:103B4000FDF756FB00BF00BF10BD00000C05005084
:103B5000446F6E277420737570706F727420736178
:103B60006D706C6520736F757263652E0A000000BE
:103B700010B50D480078B0B901200B49087000F06D
:103B8000A5FE0120094908600920002809DB00F092
:103B90001F02012191404209920002F1E022C2F885
:103BA000001100BF00BF10BD0C00002000900040BD
:103BB00013480078012822D1002011490870012003
:103BC000104948600920002817DB00F01F0201217E
:103BD00091400D4A430942F8231000BF00BF00BFC7
:103BE000BFF34F8F00BF00BF00BF00BF00BF00BFCB
:103BF000BFF36F8F00BF00BF00BF00BF00BF7047A3
:103C00000C0000200090004080E100E070B5C4216D
:103C10007148FDF709FD58206F49087252216E481E
:103C200041725E2181724FF0FF31C0F8BC10007A02
:103C3000694981F8B80000216748C17208214161D3
:103C40000246107AC21700EBD2625311624A4C321C
:103C500052F82320604B197ACB1701EBD3635B1129
:103C6000A1EB43150123AB4013435B4A107AC21703
:103C700000EBD2625511584A4C3242F825304C3A8A
:103C8000507AC21700EBD2625311534A4C3252F8A9
:103C900023304C3A517ACA1701EBD2625211A1EB90
:103CA00042150122AA4013434B4A507AC21700EB37
:103CB000D2625511484A4C3242F825304C3A907A3B
:103CC000C21700EBD2625311434A4C3252F8232000
:103CD000414B997ACB1701EBD3635B11A1EB4315F1
:103CE0000123AB4013433C4A907AC21700EBD262E7
:103CF0005511394A4C3242F8253038483649C861A6
:103D00004FF48040086200204862354848634FF411
:103D10008070886301F16800FEF7DCFC2E48D0F863
:103D2000980010B12F48006802E02E48001D00687E
:103D300029494866A52081F83C005A21264880F888
:103D40003D10442180F83E104D2180F83F105A214B
:103D500080F84010A52180F841100146496EC0F856
:103D60004210017A80F84610032180F848100021A3
:103D700080F849106FF43D6088B1A0F598506F3815
:103D800040B1A0F5B850A23870B90321124880F8AC
:103D900047100EE00221104880F8471009E0012189
:103DA0000D4880F8471004E000210B4880F84710C8
:103DB00000BF00BF01F0D6FB044600BF254625B179
:103DC00000BF284600F09EFF00BF00BF62B60A2079
:103DD00000F016FF70BD0000880000204C0100209C
:103DE0004C810020F8FF070070B504460D46032CF7
:103DF0000CD1012D06D12820FE4908700020FE4973
:103E0000087007E00120FB49087003E0FB4800EB65
:103E1000C4000571F748007800287DD0F548007887
:103E2000401EF44908700846007818B1F24800783E
:103E3000052833DB0020F0490870EE490870F0488F
:103E4000C07868B1EE488079012809D1ED49087041
:103E500000BFEA48017801208840EB4908600BE088
:103E60000020E849087000BFE4480178012088403C
:103E7000E549091D086000BF00BFE048017A012044
:103E80008840E149091D086000BF00BFDB48017C94
:103E900001208840DC49091D086068E2FDF7BAFF8F
:103EA0000646062E7ED2DFE806F0033F84C7E7FD14
:103EB000D049087800EBD0714910A0EB410159B905
:103EC0000020D049087000BFCC480178012088400C
:103ED000CD49091D086012E000BFC84801780120E3
:103EE0008840C949086000BFC648007820B9C24868
:103EF0000078401CC04908700120C249087000BF0A
:103F0000BE48017A01208840BF49091D086000BFF2
:103F100000BFBA48017C00E0F0E001208840BA49C7
:103F2000091D086000BFE7E0B2490978481000EBBE
:103F3000D0714910A0EB410199B90020B149087036
:103F400000BFAE48017801208840AF49091D0860D4
:103F500000BFA9480078032816D10520A64908709B
:103F600012E000BFA548017801208840A6490860FA
:103F700000BFA448007820B99F480078401C9E49A3
:103F8000087001209F49087000BF9C48017A0120F9
:103F900088409D49091D086000BF00BF9748017C0B
:103FA000012000E089E088409749091D086000BFB2
:103FB000A2E090490978881000EBD0714910A0EB7D
:103FC000410199B900208F49087000BF8B480178E2
:103FD000012088408C49091D086000BF8648007890
:103FE000022816D105208449087012E000BF8348DA
:103FF0000178012088408449086000BF814800782A
:1040000020B97D480078401C7B49087001207D491B
:10401000087000BF7948017A012088407A49091D5B
:10402000086000BF00BF7548017C012088407649C8
:10403000091D086000BF5FE06F480078401C6E49B2
:10404000087000BF6D480178012088406E49086003
:1040500000BF00BF6948017A012088406A49091DF4
:10406000086000BF00BF6548017C012088406649A8
:10407000091D086000BF3FE05F480078401C5E49B2
:10408000087000BF5D480178012088405E490860E3
:1040900000BF00BF5948017A012088405A49086092
:1040A00000BF00E00AE000BF5448017C01208840C6
:1040B0005549091D086000BF1EE000BF4E4800784A
:1040C000401C4D49087000BF4C48017801208840D1
:1040D0004D49086000BF00BF4848017A0120884070
:1040E0004949086000BF00BF4448017C0120884066
:1040F0004549086000BF00BF00BF38E142480830B2
:10410000006800F0005048B93F480830006800F0EF
:10411000804018B101203D49087012E03A4808304B
:10412000006800F0005048B137480830006800F0DF
:10413000804018B902203549087002E00020334958
:1041400008703248007888B900BF2C48017A0120F5
:1041500088402D49091D086000BF00BF2748017C29
:10416000012088402849091D0860C9E027480078D7
:1041700001287AD1FDF754FE06461F480078401CFE
:104180001D49087008460078052190FBF1F201FBFB
:10419000120004282DD141F2EF50864238DA00BFD8
:1041A0001948001F006815490A780121914008400C
:1041B00038B112480178012088401349091D086070
:1041C00005E00E480178012088400F49086000BFD3
:1041D00000BF0A48017A012088400B49091D086088
:1041E00000BF00BF0548017C012088400649091D29
:1041F000086063E06400002065000020FC9000205F
:10420000880000206700002008050050660000209C
:1042100041F2B170864229DA00BF55480178012089
:1042200088405449086000BF00BF081F006850491B
:104230000A7A01219140084038B14D48017A0120A5
:1042400088404C49091D086005E04948017A012071
:1042500088404849086000BF00BF4548017C0120F4
:1042600088404449091D086028E031E000BF40480B
:104270000178012088403F49086000BF00BF3C48EA
:10428000017A012088403B49086000BF00BF081F39
:10429000006837490A7C01219140084038B1344810
:1042A000017C012088403349091D086005E0304841
:1042B000017C012088402F49086000BF2E4880798A
:1042C00028B90220FEF76CFF2CA0FCF791FF17E045
:1042D00000BF27480178012088402649086000BFB8
:1042E00000BF2348017A012088402249086000BFAE
:1042F00000BF1F48017C012088401E49086000BFA4
:104300002148007898BB4DB900BF194810F8341007
:10431000012088401749091D086000BF012D08D100
:1043200000BF134810F8341001208840114908607C
:1043300000BF022D1BD100BF0E48001F00680C49B2
:1043400011F8342001219140084040B1084810F88C
:104350003410012088400749091D086006E0044820
:1043600010F83410012088400249086000BF70BD79
:10437000FC9000200805005088000020506F7765F1
:1043800072206F6E0A0000006600002070B50446BF
:104390000D4629462046FEF7FFFD70BD70B5044668
:1043A0000D461646324629462046FDF725FF70BDCC
:1043B00010B500F017FA04460E480068A04217D066
:1043C0000C4804600C488079012811D10A484079D2
:1043D00002280DD000210948006800F4801000B1C7
:1043E000012105480079884201D0012010BD00BF9D
:1043F0000020FBE76000002088000020100500502E
:104400000648006800F4801018B1012004490871C2
:1044100002E00020024908717047000010050050BA
:104420008800002070B52DED028BADF5806D05463E
:104430000E464FF4807269462846FCF705F80024C2
:1044400047E0684600EB840090ED000A06EB84002C
:10445000D0ED000AB4EEE00AF1EE10FA2ADD68466B
:1044600000EB840090ED000A06EB8400D0ED000A1A
:1044700030EE600A684600EB8400D0ED000A80EE62
:10448000208A05EBC40090ED000A20EE080A05EB37
:10449000C40080ED000A6000401C05EB800090ED38
:1044A000000A20EE080A6000401C05EB800080ED49
:1044B000000A0DE09FED0A0A05EBC40080ED000A3A
:1044C0009FED070A6000401C05EB800080ED000AAC
:1044D000641CFF2CB5DD0DF5806DBDEC028B70BD4D
:1044E0000000000000200D490860012081070860DD
:1044F00000BF0A4800680028FBD000200749091DBA
:1045000008600749086001208107886000BF0348F0
:10451000001D00680028FAD070470000000100402C
:104520001805004001480249086070470090D00318
:104530006C00002010B500F095FE28B18848008876
:10454000C0F304208749086000F0E0FE10B18648FF
:104550008649486700F0F2FE30B18148E0380068D3
:10456000C0F342308249086000F012FF28B1814850
:10457000006820F080707F49086000F021FF48B19A
:1045800000207D4908604FF08041C1F81001784952
:10459000091F086000F03EFF18B103207449643120
:1045A000086000F04FFF68B10520744908600120E1
:1045B00072497831086000207049083108603F2056
:1045C000091F086000F056FF002855D06448E0300D
:1045D00000686B4908606248E4300068091D0860A3
:1045E0005F48E8300068091D08605D48EC300068ED
:1045F000091D08605A48F0300068091D08605848D5
:10460000F4300068091D08605548F83000685C49BE
:10461000203108605248FC300068091D0860594884
:104620000068091D08605748001D0068091D0860E2
:10463000544808300068091D086052480C30006872
:10464000091D08604F48103000684D49403108602E
:104650004C4814300068091D08604A48183000684A
:10466000091D086047481C300068091D086045485E
:1046700020300068091D086000F0CAFD30B13848DC
:10468000CC38006800F04F003F49086000F014FE8D
:1046900040B13E48006800F0010018B16FF0010021
:1046A0003A49086033487438006840F47000314972
:1046B0007439086000BF00BF00BFBFF34F8F00BF59
:1046C00000BF00BF00BF00BF00BFBFF36F8F00BFC0
:1046D00000BF00BF2E48006800F00100E0B30120D9
:1046E0002C49086000BF2C4800680028FBD02848EF
:1046F000006820F001004FF01021C1F80C0200BF4B
:10470000254800680028FBD000202249086000BF2F
:10471000214800680028FBD000BF00BF00BF00BFD9
:1047200000BFBFF34F8F00BF00BF00BF1148F0387C
:10473000006800F4E06019490843001D0D49F03994
:10474000086000BF00BF00BFBFF34F8F00BF00BFB6
:1047500000BF00BF00BFFDE7FFE7FFF7E3FE10BDAE
:1047600024030010403501400DF0ADBA00C00740F1
:104770003C050040FCED00E00C01004010560040FC
:1047800020C5004024040010E40E00400004004056
:104790000C12001004E5014000E401400000FA059D
:1047A00070B50B2000F04CFA0C4805680C48046802
:1047B00000BF0B480068A042FBD0094804680B20EA
:1047C00000F069FA4FF47A706043C40B05EB4500C2
:1047D000C0EBC51004EBC00070BD00003C00002021
:1047E00004B5004001480068704700003C0000200C
:1047F00010B500200C49086001200C494860886011
:1048000000200B49086047F6FF70094938310860FD
:104810004FF48030074908600120044908600B20EC
:1048200000F039FA10BD00003C00002000B000404C
:1048300008B5004004B3004010B51A4AD1691A4ABD
:10484000127802B910BD194AB2F90020002A02DA22
:104850000022164B1A80154AB2F9002040F2555337
:1048600003EB82000F4A526A0E4B1B6AB2FBF3F451
:1048700003FB1423A0F5004212B221F81320094AC9
:10488000526A521C074B5A620122094B9A601A6005
:104890005A600022074B1A60074AD2F8402100BF35
:1048A000D0E70000880000200C0000200E0000204F
:1048B00000700040409100400090004070477047F9
:1048C0004FF0FF30704770470020704700200649C6
:1048D000C862486288620549087005490870054940
:1048E00008600548486070478800002048000020A4
:1048F000490000204C0000202C8F002010B50448F7
:10490000007F10B102F0D6FB01E002F023FB10BDE6
:1049100078910020F0B587B005460E46134A07CAC5
:1049200004AB07C38DF810508DF8116000F012FB36
:1049300000BF0F480090402001900E4802904FF4B5
:104940008070039003230C4A694604A800F024FBFE
:10495000044600BF00BF274627B100BF384600F01D
:10496000D1F900BF00BF07B0F0BD0000BC7B000064
:10497000BC8F0020FC8F0020F16D00002DE9F0417C
:104980000026402032498866800507694069A0F109
:10499000020807FB08F50846806E381A800805EB08
:1049A00080042068401C20B1284600F099FD2C4668
:1049B00012E007E02648806E8008A4EB8004AC4239
:1049C00000D203E02068401C0028F3D000BF20483C
:1049D000806E800804EB8004AC4237D32068401C12
:1049E000A0BB1B48816E204600F098FD1848C16EA0
:1049F000201D00F093FD002609E0154A703252F8A0
:104A00002610B21C04EB820000F088FD761C1048D2
:104A1000C06E082801D9082001E00D48C06EB042E0
:104A2000EBD80B48D0F8901004F1280000F076FD88
:104A30000748D0F8981004F12C0000F06FFD0448EE
:104A4000D0F89C1004F1300000F068FDBDE8F08162
:104A5000880000202DE9FC5F06464FF4807B002093
:104A6000814605460746002412E036F91400074443
:104A7000002C0CDD36F8140000F40041601E36F8FE
:104A8000100000F40040814201D009F10109641CCA
:104A9000FF2CEADD3846F91707EB11614FEA212AAE
:104AA00000240AE036F91410A1EB0A00002801DB0B
:104AB000014600E041420D44641CFF2CF2DD284613
:104AC000E91705EB11610D123E483F49097840F89E
:104AD00021503E483C49097840F821903C480078F4
:104AE000854205DD02203B49374A1278885404E0AC
:104AF00000203849344A127888544FF000080124C5
:104B000010E031480078001B122190FBF1F201FB0C
:104B100012003049085C022803D108F1010000F0BE
:104B2000FF08641C122CECDBB8F1090F16DB2948D6
:104B300025490978405C022810D1254800780830C2
:104B4000382823DCA5F108002149097888421DDDB9
:104B50001F48007808301E49087017E0B8F1000FB0
:104B600014D11C4818490978405C78B91848007875
:104B7000083818280ADB1648017805F10800814238
:104B800004DD1348007808381149087011480E49AF
:104B9000CDE900590978425C0D4803780A4801784C
:104BA0000DA0FCF725FB08480078401C122190FB63
:104BB000F1F201FB12000449087008460078BDE8D4
:104BC000FC9F00004C8200203500002094820020D1
:104BD00034000020DC8200205641445B25645D3AAD
:104BE00025642025642025642025640A0000000037
:104BF00001480249086070473546526E0006014080
:104C0000C1030C4A11600B490831096841F00901E0
:104C1000084A08321160111F096841F00101121F92
:104C200011600549034AFC3211600121034A1160F9
:104C300070470000040501403546526E00000140F7
:104C4000002817DB00F01F02012191400A4A4309A6
:104C500042F8231000BF00BF00BFBFF34F8F00BF5B
:104C600000BF00BF00BF00BF00BFBFF36F8F00BF1A
:104C700000BF00BF7047000080E100E0002809DBB2
:104C800000F01F02012191404209920002F1E0224E
:104C9000C2F800117047002809DB00F01F02012153
:104CA00091404209920002F1E022C2F800117047DF
:104CB00030380A2801D201207047002070470000D8
:104CC00000BF00BF00BF00BF00BFBFF34F8F00BFDA
:104CD00000BF00BF0948006800F4E06008490843CD
:104CE000001D0649086000BF00BF00BFBFF34F8F23
:104CF00000BF00BF00BF00BF00BFFDE70CED00E03C
:104D00000000FA050EB504460020009001900290C4
:104D100002946A46002144F20100FFF7D1FF70B50A
:104D200004460D46204600F0CCFB28B1294620461B
:104D300000F0B8FB002070BD0520FCE7034609B970
:104D40000E20704712B1501E104008B10920F8E73C
:104D50001960501E988000209860D86000BFF0E76E
:104D600070B504460D46204600F0ABFBA188884292
:104D700005D82946204600F0A9FB002070BD04207C
:104D8000FCE7000070B504460E466D4805686D48A6
:104D9000007810B9012C00D070BD012C04D0092C72
:104DA0001ED00A2C1BD174E005F0020040B9664801
:104DB0000460FFF7F5FC6449C860012048600EE01C
:104DC0006148406838B160480068012803D101217A
:104DD0000320FFF709F800205B49C8604860ACE099
:104DE00005F40070002841D105F0040078BB554857
:104DF000D0F89000C0281FD254480078042804D26C
:104E000052480078401C5149087051484F49097870
:104E1000415C4C48C0F89010FFF7C2FC4A49C8609A
:104E2000012048604FF4FA70886008460460012051
:104E3000444981F8B0002BE04248C07808B901200D
:104E400000E0002001460020FEF7CEFF20E0FFE753
:104E500000203D49C8603B48C06E082818D208466B
:104E6000046003210120FDF77DF911E03648006858
:104E700009280DD100203449C86048603148C07805
:104E800008B1012000E0002001460020FEF7ACFF41
:104E900053E005F4806088BB05F0040078BB294826
:104EA000D0F890000C281ED92848007820B1274857
:104EB0000078401E25490870254824490978415C3E
:104EC0002048C0F89010FFF76BFC1F49C860012014
:104ED00048604FF4FA708860084604600120194960
:104EE00081F8B00028E01748C07808B9012000E038
:104EF000002001460020FEF777FF1DE00AE0FFE7F3
:104F000000201149C8600846046003210220FDF713
:104F100029F911E00C4800680A280DD100200A493F
:104F2000C86048600748C07808B1012000E0002050
:104F300001460020FEF758FF00BF00BF00BF2BE76F
:104F40001005005088000020149100206800002007
:104F5000347C000010B501F0FDFB002010BD000006
:104F600070B504460A4800F0A7FA094989888842C2
:104F700008D10121074801F02FFA05460DB105209F
:104F800070BD00BF21460248FFF7C9FEF8E70000E8
:104F9000989100207A0000202DE9F04188B0044665
:104FA0000D4617469846294807601DB9072008B0E6
:104FB000BDE8F081A88882B225482968FFF7BEFEC7
:104FC000064600BF0EB13046F1E700BFA88982B2A5
:104FD0002048A968FFF7B2FE064600BF0EB1304672
:104FE000E5E700BF20221C496846FCF7EBFAA06801
:104FF0000690207908B1012000E000208DF814000F
:105000008DF81C80607908B10E2000E000208DF83A
:105010001500E0780290A0780390207801906078E5
:1050200000900E49684601F065F9064600BF0EB1D2
:105030003046BCE700BF9DF81D0008B901F024FA16
:105040000121074801F0C8F9B1E700007400002011
:1050500098910020A8910020787C0000956E0000B7
:105060007A00002070B5044607480470012101F061
:10507000CFFA0546112D04D121460448FFF770FEF2
:105080000546284670BD000079000020A891002048
:1050900010B50446206801F0BCFB206801F0D8FB85
:1050A0000021606801F0A8FB2548007F18B3A069C3
:1050B0002449086000BF607D217D40EA0102224B47
:1050C000C3F86C2500BF1846D4E9001201F05DFC5E
:1050D000207D012832D10021A06801F08DFBE0681D
:1050E00001F097FBE06801F0B3FB1748D4E9022117
:1050F00001F037FC22E0A0691249086000BF607D22
:10510000217D40EA0102104BC3F86C2500BF184610
:10511000D4E9001201F010FC207D01280ED10021FD
:10512000A06801F069FBE06801F073FBE06801F042
:105130008FFB0548D4E9022101F0E7FB10BD000018
:105140007891002024250040002000404FF0FF31DE
:10515000054A42F82010082804DBFF23A0F10801CB
:105160004432535470470000249100200146024805
:1051700050F8210070470000249100202DE9F04FE5
:1051800003460C464FF0FF390AB1002000E008202A
:1051900084460AB1082000E009208046614624E0E8
:1051A000154850F82100401CF0B91D460846274616
:1051B00016464FFA80FBDFF840A00AF1240A0AF8ED
:1051C00005B0DFF834A04AF820704EB94FFA85FBDD
:1051D000A0F1080ADFF820E00EF1440E0EF80AB044
:1051E00000BF4FFA81F902E0491C4145D8D300BF06
:1051F0004846BDE8F08F0000249100200146014898
:10520000405670474891002000210160416070477E
:1052100013480078062820D11148001D007800F0BE
:105220000F00D0B90E480830007800F0F0003028A8
:1052300001D1012070470A480830007800F0F000E2
:10524000402801D10120F5E705480830007800F03A
:10525000F000502801D10120ECE70020EAE700002F
:10526000E00F00F013480078062820D11148001DF7
:10527000007800F00F00D0B90E480830007800F038
:10528000F000302801D1012070470A48083000782A
:1052900000F0F000402801D10120F5E70548083072
:1052A000007800F0F000502801D10120ECE7002048
:1052B000EAE70000E00F00F013480078062820D14C
:1052C0001148001D007800F00F00D0B90E480830DA
:1052D000007800F0F000302801D1012070470A4822
:1052E0000830007800F0F000402801D10120F5E7F7
:1052F00005480830007800F0F000502801D1012066
:10530000ECE70020EAE70000E00F00F00A48007830
:1053100006280ED10848001D007800F00F0040B9A3
:1053200005480830007800F0F000302801D1012055
:1053300070470020FCE70000E00F00F01348007801
:10534000062820D11148001D007800F00F00D0B9C8
:105350000E480830007800F0F000302801D101201C
:1053600070470A480830007800F0F000402801D16A
:105370000120F5E705480830007800F0F0005028DB
:1053800001D10120ECE70020EAE70000E00F00F087
:105390000A48007806280ED10848001D007800F061
:1053A0000F0040B905480830007800F0F0003028C0
:1053B00001D1012070470020FCE70000E00F00F061
:1053C00013480078062820D11148001D007800F00D
:1053D0000F00D0B90E480830007800F0F0003028F7
:1053E00001D1012070470A480830007800F0F00031
:1053F000402801D10120F5E705480830007800F089
:10540000F000502801D10120ECE70020EAE700007D
:10541000E00F00F00A48007806280ED10848001D69
:10542000007800F00F0040B905480830007800F01F
:10543000F000302801D1012070470020FCE7000077
:10544000E00F00F00A48007806280ED10848001D39
:10545000007800F00F0040B905480830007800F0EF
:10546000F000302801D1012070470020FCE7000047
:10547000E00F00F00A48007806280ED10848001D09
:10548000007800F00F0040B905480830007800F0BF
:10549000F000502801D1012070470020FCE70000F7
:1054A000E00F00F0826883881A4003689A5C0A70F3
:1054B0008268521C8260704701468A68C868801AF8
:1054C000704701468A68C868801A7047C268838836
:1054D0001A4003689954C268521CC26070470000A9
:1054E00002210C4A116000BF0B4909680029FBD05A
:1054F0000849091D086000BF074909680029FBD059
:105500000021044A116000BF034909680029FBD04B
:105510007047000004E5014000E4014001220B4B0C
:105520001A6000BF0A4A1268002AFBD0016000BF5F
:10553000074A1268002AFBD00022044B1A6000BF01
:10554000034A1268002AFBD07047000004E50140BE
:1055500000E4014070B504460D46E0B2FFF782FD5D
:10556000204670BD70B5002600204D490860486097
:105570004C49086048604C49086048604B480078D6
:10558000002875D101204949087004204449C860A9
:1055900020208860C968C800FBF7D4FD0546404854
:1055A0000561EDB10146C9680246926801FB02F04F
:1055B000FBF7C8FD054685B1002409E0384880683E
:1055C00004FB00503649096901EBC4014860641CC2
:1055D0003348C068A042F1DC04E048F2010601E073
:1055E0004FF4004630202F49C86050208860C968B9
:1055F000C800FBF7A7FD05462A480561EDB1014645
:10560000C9680246926801FB02F0FBF79BFD054664
:1056100085B1002409E02348806804FB005021493B
:10562000096901EBC4014860641C1E48C068A042BF
:10563000F1DC04E04CF2010601E04FF44046142096
:105640001949C86001208860C968C800FBF77AFD65
:10565000054615480561F5B10146C96802469268DC
:1056600001FB02F0FBF76EFD05468DB100240AE058
:1056700014E00D48806804FB00500B49096901EBF8
:10568000C4014860641C0848C068A042F1DC04E022
:105690004CF2010601E04FF4404600BF304670BDB9
:1056A000F08E0020048F0020188F0020440000207E
:1056B00010B51648007F20B11549164801F057F97A
:1056C00004E013498C39134801F024F902210846FB
:1056D000002817DB00F01F0301229A400E4B4409FB
:1056E00043F8242000BF00BF00BFBFF34F8F00BFAF
:1056F00000BF00BF00BF00BF00BFBFF36F8F00BF80
:1057000000BF00BF00BF00BF10BD000078910020A7
:10571000100302000020004080E100E0014608681C
:10572000401CCA6890FBF2F302FB13004A689042E7
:1057300001D1002070470120FCE7014608684A6853
:10574000904201D0002070470120FCE72DE9FC4188
:10575000FEF7C8FEFEF75AFAFFF74AF8FDF752FEC9
:1057600012211320FFF7D6F8FEF72CF9FDF7BCF94C
:10577000FFF7A6F8FCF7D2FAFDF7B6FCFE4890F862
:105780004700FD49D1F89010CDE90010FA48436E6A
:105790004FF08050026EF9A1FBA0FBF729FD56E205
:1057A000FDF788FBF44800780C287CD2DFE800F095
:1057B0007B0618335564DFFEFDFCFBFAEE4BDC7A0A
:1057C00008331A5D083B996B586BFDF7A7FFFEF78E
:1057D000E7FF00F57A70E849C8600220087035E2FA
:1057E000FEF7DEFFE449C968884213D9E248C07A6F
:1057F000401C032190FBF1F201FB1200C1B2DE4814
:10580000C172C07A18B90320DB49087002E0012098
:10581000D94908701AE2FDF7F3FC0F21B0FBF1F251
:1058200001FB1200C0F15F04E21704EBD2625311D6
:10583000D14A4C3252F82320E31704EBD3635B11B7
:10584000A4EB43150123AB401A402AB9CA4880F89B
:1058500046400420C8490870F8E1D4A0FBF7C8FC12
:10586000FEF786F900BFC448406AB0F5206FFAD34E
:105870000520C1490870E9E1BF48406ABE49C96ACC
:10588000401AB0F5007F64D3BB4A116AD0692C324C
:10589000FEF784FDB84890F82C00002859D1B6488E
:1058A000C469C06A00E0D0E1A0F58070B249096A1D
:1058B000B0FBF1F201FB120004EB40042046FFF7BD
:1058C000C9F80646AC48806A00F52060AA49C96A52
:1058D00088423DD806F10800122190FBF1F201FB4D
:1058E0001200C7B23846FCF767FF054605F0010015
:1058F00050B9A148006B401C9F490863AF4800683D
:10590000401CAE49086002E00020AC490860AB488A
:105910000068FCF72DFD80469748C469806A964967
:10592000096AB0FBF1F201FB120004EB40044346AC
:105930002A464FF48071204601F018F98E48406ADB
:105940008D4988610846806A00F58070886200BFD2
:1059500000BF8948406A88498969884206D3FCF7B4
:105960009BFD8548406A2830834988616EE10020AC
:10597000814B0090DC7A08331A5D083B996B586BB9
:105980000023FDF7BBFC7C48C07A401C032190FB40
:10599000F1F201FB1200C1B27748C17208214161E6
:1059A000052004E044E133E16AE037E002E07249B7
:1059B00008704BE1FEF7FCF86F48D0F8A8006E4C79
:1059C000009094F85C30E57A0834625D083CA16B85
:1059D000606BFDF793FC2346DC7A08331A5D083BC5
:1059E000996B586BFDF79AFEFEF7DAFE00F155044D
:1059F000FDF706FC00F00F0021185F48C160082089
:105A00005D4908700846C47A0830035D083890F88C
:105A10005C2001696AA0FBF7EBFB17E1FEF7C0FE13
:105A20005549C96888422AD9534890F85C00012832
:105A300009D0514890F85C00022804D04E4890F8F4
:105A40005C0004280AD14C48C07A401C032190FB1A
:105A5000F1F201FB1200C1B24748C1724648006929
:105A600038B107204449087008460069401E0861A3
:105A700005E0042040490870002081F85C00E5E062
:105A80003D4890F85C00052829D1002424E03A48DC
:105A9000703050F82400A0B9601C3749C866084629
:105AA000D0F8A810703040F82410FEF767FFFEF71A
:105AB00005FF3148C26ED0F8A81046A0FBF798FB4E
:105AC0000CE02D48703050F824002B49D1F8A81074
:105AD000884200D102E0641C082CD8DB3EE0264856
