:020000040000FA
:10000000E8930020C5040000CD040000CF040000E8
:10001000D1040000D3040000D5040000000000005B
:10002000000000000000000000000000D7040000F5
:10003000D904000000000000DB040000DD04000023
:10004000DF04000069110000191A0000DF0400003D
:10005000DF040000DF040000DF040000DF04000014
:10006000DF04000021190000DF040000DD110000A2
:10007000DF040000DF040000DF040000DF040000F4
:10008000DF0400000D120000DF040000DF040000A8
:10009000DF040000DF040000DF040000DF040000D4
:1000A000DF040000DF040000DF040000DF040000C4
:1000B000DF040000DF04000000000000000000007A
:1000C000DF040000DF040000DF040000DF040000A4
:1000D000DF040000DF040000DF0400000000000077
:1000E0000000000000000000000000000000000010
:1000F0000000000000000000000000000000000000
:1001000000000000000000000000000000000000EF
:1001100000000000000000000000000000000000DF
:1004000000F002F800F04EF80AA090E8000C8244D8
:100410008344AAF10107DA4501D100F043F8AFF2B5
:10042000090EBAE80F0013F0010F18BFFB1A43F0D2
:100430000103184770BD010090BD0100103A24BFB0
:1004400078C878C1FAD8520724BF30C830C144BF39
:1004500004680C607047000000230024002500267B
:10046000103A28BF78C1FBD8520728BF30C148BF17
:100470000B607047642900F0D180782900F00A8170
:10048000632900F03383732900F03883002070471C
:100490001FB503F025FC9DE8030000F067FA1FBDBF
:1004A00010B510BD00F082FB1146FFF7F1FF01F01F
:1004B0008BFE00F0A0FB03B4FFF7F2FF03BC00F0DB
:1004C000D1FB00000948804709480047FEE7FEE7E6
:1004D000FEE7FEE7FEE7FEE7FEE7FEE7FEE7FEE7F4
:1004E00004480549054A064B7047000059160000AC
:1004F00001040000E8530020E8930020E873002086
:10050000E873002070B5064600F014FA056806F19D
:100510000B0020F00704B4429CBF002070BD2B46A6
:100520006A68BAB11068A04210D304F10801884289
:100530003CBF5068586007D351681019416011687A
:10054000091B016058601460101D70BD134652688D
:10055000002AE7D12146284600F0F4F90028DED130
:1005600070BD00000FB4044910B503AA029800F052
:10057000C9FA10BC5DF814FB2C00002070B50446CD
:1005800085690068C10601D5302600E02026C00735
:1005900007D070BDD4E9012130469047206A401C45
:1005A00020626D1EF6D570BD70B504468569007871
:1005B000C00707D170BDD4E9012120209047206AEF
:1005C000401C20626D1EF6D570BD70B50C46054608
:1005D000012A05D02878800600D5EA69002302E0C8
:1005E000012305E05B1C934202D2E05C0028F9D1B4
:1005F000A869E618C01AA861286A18442862284623
:10060000FFF7BCFF04E0D5E9012114F8010B904786
:10061000B442F8D32846FFF7C7FF70BD2DE9F0417B
:100620000646002410687529314616A510D0AFF390
:100630000080002802DA404213A507E031688A07EB
:1006400001D512A502E0490704D511A5012401E056
:10065000AFF3008000210A2206F1240709E0B0FB75
:10066000F2FCB0FBF2F302FB1C0030307854184669
:10067000491C0028F3D123462A463046BDE8F04104
:1006800000F0D1B9000000002D0000002B00000098
:100690002000000070B504460D4621461068AFF3F7
:1006A00000802188090502D50F4A7A4402E00E4AEB
:1006B0007A440E32002104F1240305E000F00F0615
:1006C0000009965D5E54491C0028F7D1207800236C
:1006D000000704D5702D02D009B102231132204643
:1006E000BDE8704000F09FB9BABA01002DE9F05F93
:1006F000894604464FF0000ADFF824B1FB44C0F8F5
:1007000020A02046E168884700287DD0252806D013
:10071000D4E901219047206A401C2062F1E70025BE
:100720005F462046E16888472028064607DB312ED1
:1007300005D2B81910F8200C08B10543F1E7A80755
:1007400001D525F00405C4F81CA00027C4F818A0A2
:100750002A2E09D0304601F04BFA38B304EB870853
:10076000303EC8F8186019E059F8041B204604EB25
:1007700087029161E1688847012F064618D1E06938
:10078000002820DA25F020051DE0D8F8180000EB3D
:10079000800006EB40003038C8F818002046E168B9
:1007A0008847064601F024FA0028EED1012F0AD02E
:1007B0002E2E08D12046E16888477F1C0646022F6E
:1007C00045F02005C4DBA069002803DA404245F06B
:1007D0000105A061E80701D025F01005A6B1A6F13A
:1007E0004100192802D8203645F400654A463146B2
:1007F000204625604D46FFF73DFE60B1012807D039
:10080000ED1D25F0070000E007E000F1080978E79A
:1008100005F1040975E730467AE7206ABDE8F09FE4
:1008200090BA010040EA010310B59B070FD1042ADA
:100830000DD310C808C9121F9C42F8D020BA19BAAB
:10084000884201D9012010BD4FF0FF3010BD1AB110
:10085000D30703D0521C07E0002010BD10F8013B65
:1008600011F8014B1B1B07D110F8013B11F8014B8C
:100870001B1B01D1921EF1D1184610BD10B5203AB4
:10088000C0F00B80B1E81850203AA0E81850B1E849
:100890001850A0E81850BFF4F5AF5FEA027C24BFFF
:1008A000B1E81850A0E8185044BF18C918C0BDE8F6
:1008B00010405FEA827C24BF51F8043B40F8043BBF
:1008C00008BF7047D20728BF31F8023B48BF11F874
:1008D000012B28BF20F8023B48BF00F8012B7047CE
:1008E0004FF0000200B5134694469646203922BFC9
:1008F000A0E80C50A0E80C50B1F12001BFF4F7AF14
:10090000090728BFA0E80C5048BF0CC05DF804EBF5
:10091000890028BF40F8042B08BF704748BF20F863
:10092000022B11F0804F18BF00F8012B7047704761
:1009300070477047004870479053002070477047D9
:100940007047704738B504460A4600206946AFF341
:100950000080002808BF38BD02460099204600F0FC
:10096000E7F8012038BD012000F018B9F8B5AFF361
:100970000080054600200C46102000BF0646A8193E
:10098000A0420DD9324669460020AFF3008007002F
:1009900008BF00F003F90098A04218BF0546C4192B
:1009A000FFF7C8FF05600746F01D20F00700461955
:1009B000284600F00AF8B44208BFF8BDA21B314631
:1009C0003868BDE8F84000F0B3B800210160C0E924
:1009D000011070471020704770B50446051FFFF7DF
:1009E000A9FF0068002C14BF446870BD002C18BF1C
:1009F000AC423CBF20466468F8D301680A18AA429A
:100A000018BF456003D12A68054611440160286873
:100A10004119A1421CBF6C6070BD616869602168AA
:100A20000844286070BD2DE9F0470D46994692466E
:100A3000044600F124080168880604D5E06921F025
:100A40001001216000E00120A84201DD471B00E009
:100A50000027A1697A1902EB0900081AA061207821
:100A6000C00602D42046FFF789FD002608E0D4E93D
:100A700001211AF806009047206A401C761C20626B
:100A80004E45F4DB2078C0060AD52046FFF776FDF8
:100A900006E0D4E9012130209047206A401C206202
:100AA000381EA7F10107F4DC07E0D4E9012118F8AA
:100AB00005009047206A401C2062281EA5F1010510
:100AC000F3DC2046FFF770FD2078000602D50220F7
:100AD000BDE8F0870120FBE710B5436913B1AFF320
:100AE000008001E0FFF771FD012010BD127800F1D8
:100AF00024010A7000224A700122EDE711684FF0CC
:100B0000FF32E9E7074B70B50D467B4400F02FF844
:100B10000446284600F03EF810B14FF0FF3070BD9B
:100B2000204670BDC915000000487047885300205A
:100B3000034640688C46002818BF88423CBF0346E5
:100B40004068F8D318681844884207D00CF10300B5
:100B500020F00700001D411A521A0146081D0A60C4
:100B6000FFF73ABF01694A1C02610878704700B577
:100B70008FB0CDE901310021059105497944CDE9D6
:100B8000031011466846FFF7B1FD0FB000BD00002D
:100B9000E5FFFFFF007B00F08000704710B500F01C
:100BA00039F8BDE8104000F02FB870477546FFF7E0
:100BB000BBFFAE4605006946534620F00700854658
:100BC00018B020B5FFF78CFCBDE820404FF00006C0
:100BD0004FF000074FF000084FF0000B21F0070125
:100BE000AC46ACE8C009ACE8C009ACE8C009ACE868
:100BF000C0098D46704710B50446AFF3008020460B
:100C0000BDE81040FFF757BC002801D000F02AB81B
:100C10007047000010B5012805D0002103A000F0A6
:100C200027F8012010BD09A1F8E7000053494752F9
:100C3000544D454D3A204F7574206F6620686561AC
:100C400070206D656D6F7279000000003A20486574
:100C50006170206D656D6F727920636F727275704F
:100C60007465640001491820ABBEFEE7260002004F
:100C700070B505460C460A2000E06D1C00F011F826
:100C800035B128780028F8D102E0641C00F009F89A
:100C900014B120780028F8D1BDE870400A20AFF3E5
:100CA000008008B569468DF800000320ABBE08BD82
:100CB0002DE9F041064635480078012806D0022883
:100CC00006D0042803D009285BD100BF00BF00BFB5
:100CD0002E490A22086A4831FFF7A4FD00284FD1A7
:100CE0002A48006A00F10A0435462848006AC07C98
:100CF00000F0020000B145E014F8010B287014F870
:100D0000010B687014F8010BA87014F8010BE8705F
:100D100014F8011B1D4880F8521014F8011B80F8CC
:100D2000531014F8011B80F8541014F8011B80F8BC
:100D3000551014F8018B14F8017BB8F1000F1ED187
:100D400007F001002246316800F029F8B8B107F039
:100D500001000E49886600220321022000F02CF9D0
:100D60000B480A4988620B480068C8629FED0A0A6E
:100D7000084680ED070A0320087000F0A5F900BFBF
:100D800000E000BF00BFBDE8F0810000345100204A
:100D9000286F0000848B00000AD7A33C70470346ED
:100DA00001207047002009E040F20132054941F876
:100DB000202001218140044A1160401C2028F3DBDF
:100DC00070470000000700500C0500502DE9F04767
:100DD0000B461746B0F90090A3F800904C469B1CB8
:100DE0008678001D7F1E4FF0010850E0DFF8AC90C0
:100DF00059F82620B8F1000F04D090F8009009F0BF
:100E00000F0104E090F800904FEA2911401CB8F15E
:100E1000000F02D14FF0010901E04FF00009C84670
:100E2000DFF87C9059F821904E44002E00DA00261D
:100E3000582E00DD582601F0080C01F00701D508F6
:100E400001F00409B9F1000F00D0154401F00209C6
:100E5000B9F1000F01D005EB520501F00109B9F11C
:100E6000000F01D005EB9205BCF1000F01D0641B0F
:100E700000E02C4414F5004F00DA0A4CB4F5004FA2
:100E800001DB47F6FF740FFA84F923F8029BB7F1F0
:100E90000009A7F10107A9DCBDE8F08784BF0100C4
:100EA000E8C001000080FFFF70B52DED028B044605
:100EB0000D46B0EE408A1748806A18BB00F0EAFC85
:100EC0001449496C88421ED900F0E4FC41F2883193
:100ED00001441048416400220321022000F06CF814
:100EE0000C488462C56280ED078A00200A490860C8
:100EF00001208107086000BF074800680028FBD078
:100F000000F0E2F802E0012081074860BDEC028BAE
:100F100070BD000034510020000100400020204935
:100F20000860091D086004201D490C3108607D20FF
:100F30001B493C31086001201A49C8601A49086001
:100F400000041849C1F80403062018490860082164
:100F500016480830016001201449603908600020FB
:100F6000091D08608815091D08600220091D086018
:100F70000120091D08600020091D08600C480B496C
:100F800040390860022109483C3801600021001DF9
:100F90000160001D016000200649088070470000C4
:100FA00004950040009000400092004060C5014060
:100FB000000000200600002070B506460C461546CD
:100FC00000F074F8012E0CD0022E13D0032E19D18C
:100FD00001203449086040F26B103249303108601A
:100FE00018E002202F49086040F26B102D49303183
:100FF00008600FE003202B4908607D20294930312B
:10100000086007E00420274908607D202549303129
:10101000086000BF00BF012C06D0022C09D0032CB1
:101020000CD0042C14D10EE04FF480701E490860DF
:1010300013E04FF480701C4908600EE04FF480709C
:101040001949086009E04FF480601749086004E01E
:101050004FF480601449086000BF00BF35B1022D15
:1010600009D0032D0CD0042D14D10EE000200E4920
:10107000091D086013E002200B49091D08600EE0FD
:1010800003200949091D086009E004200649091DDB
:10109000086004E001200449091D086000BF00BF8A
:1010A00070BD00001095004008C5014000B500F07B
:1010B00027F800200349486188618862C862C863D4
:1010C00000BD0000345100200B48008898B9012071
:1010D00009490880094908600920002809DB00F057
:1010E0001F02012191404209920002F1E022C2F860
:1010F000001100BF00BF70470600002000900040B4
:1011000015480088012825D10020134908800120B6
:101110001249486012494860C8600920002817DB5E
:1011200000F01F02012191400E4A430942F82310AA
:1011300000BF00BF00BFBFF34F8F00BF00BF00BFA5
:1011400000BF00BF00BFBFF36F8F00BF00BF00BF75
:1011500000BF00BF704700000600002000C0014033
:101160000090004080E100E0002008490860084845
:10117000D0F80C010748006807490A68012191402E
:10118000084010B101200549486670470C11004025
:101190000010004030150040081400403451002079
:1011A00001210B4A116000210A4A116001210A4AFB
:1011B000116000BF074909680029FBD00449091DD7
:1011C00008680021034A11600121034A51607047F9
:1011D00004D5004000D1004000D00040084800681D
:1011E00068B10020064908600648D0F84001012097
:1011F0000449886004480068401C0349086070473F
:1012000040B1004000B000400C00002007480068DA
:1012100058B10020054908600548D0F84001012078
:10122000034988600020034908607047401101406D
:10123000001001401000002010B56C211F48FFF77E
:101240004FFB1F481D49C8604FF420500861002023
:1012500048618861B7EE000A084680ED070A002061
:101260000870184808624FF480704862582048702F
:101270005221124881705E21C17000210171A520A8
:101280000E4981F848005A210C4880F84910442141
:1012900080F84A104D2180F84B105A2180F84C10EC
:1012A000A52180F84D1008490968C0F84E1000F0DB
:1012B000EBFB01200549086062B610BD34510020E7
:1012C0003400002034500020FCFF07007805004067
:1012D0002DE9F041054688461746114E2C46E07C24
:1012E00040F00200E074A6F1580000780A2804D10A
:1012F000E07C40F00400E07403E0E07C20F00400B7
:10130000E0743078207570786075B078A075F078EA
:10131000E0753A461821284600F078F8BDE8F081DB
:101320008C5100201249097881421FD01049087061
:101330000021104A116001210F4A116100BF0D49BF
:1013400009680029FBD008B1012100E002210B4A05
:1013500011600021074A103A11600121064A5160CC
:1013600000BF0449103909680029FAD0704700000D
:10137000080000201011004000100040301500400F
:1013800010B5044612201B49086004201A49086061
:101390000020091D0860091D08601848091D086023
:1013A00001201549283108604FF6FF70124930318D
:1013B00008601348091F0860200E5A2141EA0020E6
:1013C0000D49183108600F480B491031086024F0AE
:1013D0007F40091D08600020074920310860012076
:1013E000091D086008200849C1F80403012000F025
:1013F000E5FB10BD001200400C150040FF4A02033F
:10140000211001005AA5A5000010004010B50346A8
:1014100001202C4CE0602C48006800F07F009042D6
:1014200009D1294848300068092804D326484830A3
:1014300000680B281ED90020244C20600120214C7C
:10144000206100BF214800680028FBD0642092FB87
:10145000F0F400FB14201C4C206000201B4C103CBE
:1014600020600120174C206000BF18481038006829
:101470000028FAD014481030006820F47F404A2930
:1014800001D94A2400E00C4640EA04200E4C1034F6
:1014900020600D48001F036000200C4C241F2060BA
:1014A0000820084CC4F808030120A06000BF0748CA
:1014B000001F00680028FAD00020044C241F206080
:1014C00010BD000000100040081500401011004041
:1014D00070B505460E46144601203149C8603149B1
:1014E00091F85210A14201D0012100E000210846EC
:1014F000FFF718FF2C48006800F07F00A04208D1D9
:1015000029484830006820B127484830006803283F
:101510001ED900202549086001202149086100BF2B
:10152000224800680028FBD0642094FBF0F100FB07
:1015300011401D49086000201C4910390860012035
:101540001749486000BF1948103800680028FAD0D1
:1015500015481030006820F47F404A2E01D94A21F6
:1015600000E0314640EA01200F49103108600E4882
:10157000001F056001200A49886000200B492431C2
:1015800008600749C1F830010820094908600020B7
:101590000349C1F80C01012000F010FB70BD0000F0
:1015A0000010004034510020081500401011004088
:1015B0000413004001201149C86008610820104947
:1015C00008600120002817DB00F01F020121914074
:1015D0000C4A430942F8231000BF00BF00BFBFF30D
:1015E0004F8F00BF00BF00BF00BF00BF00BFBFF3F1
:1015F0006F8F00BF00BF00BF00BF704700100040EA
:101600000813004080E100E000200D49086001203F
:101610008107086000BF0A4800680028FBD000204E
:101620000749091D08600749086001208107886093
:1016300000BF0348001D00680028FAD07047000072
:101640000001004018050040014802490860704749
:101650000090D0032000002010B500F053FC10B122
:101660005C485D49486700F065FC28B15B4800684C
:10167000C0F342305A49086000F086FC28B159484E
:10168000006820F080705749086000F095FC48B170
:101690000020554908604FF08041C1F810015049C1
:1016A000091F086000F0B2FC18B103204C496431F6
:1016B000086000F0C3FC68B105204C4908600120B7
:1016C0004A497831086000204849083108603F20C5
:1016D000091F086000F0CAFC002855D04448006883
:1016E000444908604248001D0068091D08604048E0
:1016F00008300068091D08603D480C300068091D6D
:1017000008603B4810300068091D086038481430F4
:101710000068091D086036481830006835492031D6
:10172000086033481C300068091D086030482030CC
:101730000068091D08602E4824300068091D0860F3
:101740002B4828300068091D086029482C300068A3
:10175000091D08602648303000682649403108607D
:10176000234834300068091D08602148383000687B
:10177000091D08601E483C300068091D08601C48AF
:1017800040300068091D086000F092FB30B113483A
:101790001430006800F04F00174908601148743891
:1017A000006840F470000F497439086000BF00BF42
:1017B00000BFBFF34F8F00BF00BF00BF00BF00BF1F
:1017C00000BFBFF36F8F00BF00BF00BFFFF73CFF3C
:1017D00010BD00000DF0ADBA00C00740440200107B
:1017E0003C050040FCED00E00C01004010560040BC
:1017F0000404001020C50040E40E004010B52DED9B
:10180000068B044601201B494860886000201A4965
:101810000860204602F069F841EC1A0B9FED170BA7
:1018200053EC102B02F074F841EC190B9FED150BE3
:1018300053EC102B01F084FF41EC180B02F028F858
:101840000D49383108604FF480301049086001209C
:1018500008490860112000F0BEF901200C49086019
:1018600000E020BF0A4800680028FAD1BDEC068BD2
:1018700010BD000000100140081501401904560E6B
:101880002D624040000000000000E03F04130140D2
:101890001000002070B50B2000F072F90C480568AC
:1018A0000C48046800BF0B480068A042FBD0094800
:1018B00004680B2000F08FF94FF47A706043C40B7A
:1018C00005EB4500C0EBC51004EBC00070BD000087
:1018D0000C00002004B5004010B500200C49086041
:1018E00001200C494860886000200B49086047F6D9
:1018F000FF700949383108604FF4803007490860AB
:101900000120044908600B2000F065F910BD0000BB
:101910000C00002000B0004008B5004004B30040B7
:1019200030B5364BDA689B6A2BB1344B5B69334C6C
:10193000A469A34207D3314B5B6903F500732F4CB5
:10194000A469A34212D22D4B5B692C4C2469B3FBD2
:10195000F4F504FB153302EB4302284B5B695B1C77
:10196000264C63611388264C238002E00023244C1C
:101970002380224BD3ED070A214BB3F9003000EE50
:10198000103AB8EEC00A20EE800ABDEEC00A10EE92
:10199000100AB0F5004F02DB47F6FF7003E010F5C8
:1019A000004F00DA174803B2154C23802346B3F9E1
:1019B0000030302B07DA2346B3F9003013F1300F33
:1019C00001DD002323800E4BB3F9003003F5004105
:1019D000090ACBB203F500430B4C2380C1F5807399
:1019E000DBB203F5004363800123084CA3600023AE
:1019F000074C2360074BD3F8403130BD34510020F1
:101A0000040000200080FFFF0000002000C0014013
:101A1000409100400090004010B50448007F10B194
:101A200001F0F8FD01E001F045FD10BD4853002034
:101A300030B587B0104A07CA04AB07C300BF0F48D0
:101A40000090012001900E4802904FF480700390A6
:101A500003230C4A694604A800F050F9044600BF6D
:101A600000BF254625B100BF284600F0EBF800BFB7
:101A700000BF07B030BD0000EC3C000009000020B2
:101A8000A0510020B933000070B5002300214FF0B1
:101A900080552A696D69AC1E02FB04F007E020C87E
:101AA0000B4EB56508C80831914200D303E00568C4
:101AB0006D1C002DF3D100BF054DAD6D25B94FF064
:101AC00080552D6E024EB565014DEB6570BD000071
:101AD0003451002010B52DED068B044601201F491E
:101AE0004860886000201E490860204601F0FDFE25
:101AF00041EC1A0B9FED1B0B53EC102B01F008FF70
:101B000041EC190B9FED190B53EC102B01F018FE53
:101B100041EC180B01F0BCFE1149383108604FF45C
:101B200080301449086001200C490860112000F041
:101B300052F801201049086000E030BF0E480068EC
:101B400018B10E48406E0028F7D00C48406E18B10E
:101B50000120BDEC068B10BD0020FAE7001001400B
:101B6000081501401904560E2D6240400000000087
:101B70000000E03F04130140100000203451002019
:101B8000002817DB00F01F02012191400A4A430997
:101B900042F8231000BF00BF00BFBFF34F8F00BF4C
:101BA00000BF00BF00BF00BF00BFBFF36F8F00BF0B
:101BB00000BF00BF7047000080E100E0002809DBA3
:101BC00000F01F02012191404209920002F1E0223F
:101BD000C2F800117047002809DB00F01F02012144
:101BE00091404209920002F1E022C2F800117047D0
:101BF00030380A2801D201207047002070470000C9
:101C000000BF00BF00BF00BF00BFBFF34F8F00BFCA
:101C100000BF00BF0948006800F4E06008490843BD
:101C2000001D0649086000BF00BF00BFBFF34F8F13
:101C300000BF00BF00BF00BF00BFFDE70CED00E02C
:101C40000000FA050EB504460020009001900290B5
:101C500002946A46002144F20100FFF7D1FF70B5FB
:101C600004460D46204600F028FA28B129462046B1
:101C700000F014FA002070BD0520FCE7034609B906
:101C80000E20704712B1501E104008B10920F8E72D
:101C90001960501E988000209860D86000BFF0E75F
:101CA00070B504460D46204600F007FAA188884228
:101CB00005D82946204600F005FA002070BD042012
:101CC000FCE7000070B504460A4800F0F1F9094944
:101CD0008988884208D10121074800F0F5FE0546B1
:101CE0000DB1052070BD00BF21460248FFF7B7FFC8
:101CF000F8E70000685300202A0000202DE9F04199
:101D000088B004460D4617469846294807601DB915
:101D1000072008B0BDE8F081A88882B2254829686C
:101D2000FFF7ACFF064600BF0EB13046F1E700BF3B
:101D3000A88982B22048A968FFF7A0FF064600BF25
:101D40000EB13046E5E700BF20221C496846FEF789
:101D500095FDA0680690207908B1012000E00020E0
:101D60008DF814008DF81C80607908B10E2000E019
:101D700000208DF81500E0780290A078039020787C
:101D80000190607800900E49684600F02BFE0646F0
:101D900000BF0EB13046BCE700BF9DF81D0008B97A
:101DA00000F0EAFE0121074800F08EFEB1E70000D6
:101DB00024000020685300207853002048C101000F
:101DC000F53300002A00002070B50446074804706F
:101DD000012100F095FF0546112D04D1214604484C
:101DE000FFF75EFF0546284670BD00002900002071
:101DF0007853002010B50446206801F042F82068AE
:101E000001F04CF80021606801F02EF82548007FB1
:101E100018B3A0692449086000BF607D217D40EAB5
:101E20000102224BC3F86C2500BF1846D4E900120A
:101E300001F08CF8207D012832D10021A06801F04A
:101E400013F8E06801F01DF8E06801F027F8174882
:101E5000D4E9022101F066F822E0A0691249086085
:101E600000BF607D217D40EA0102104BC3F86C2564
:101E700000BF1846D4E9001201F03FF8207D012888
:101E80000ED10021A06800F0EFFFE06800F0F9FF3C
:101E9000E06801F003F80548D4E9022101F016F8E2
:101EA00010BD0000485300202425004000200040C1
:101EB00013480078062820D11148001D007800F052
:101EC0000F00D0B90E480830007800F0F00030283C
:101ED00001D1012070470A480830007800F0F00076
:101EE000402801D10120F5E705480830007800F0CE
:101EF000F000502801D10120ECE70020EAE70000C3
:101F0000E00F00F00A48007806280ED10848001DAE
:101F1000007800F00F0040B905480830007800F064
:101F2000F000302801D1012070470020FCE70000BC
:101F3000E00F00F013480078062820D11148001D5A
:101F4000007800F00F00D0B90E480830007800F09B
:101F5000F000302801D1012070470A48083000788D
:101F600000F0F000402801D10120F5E705480830D5
:101F7000007800F0F000502801D10120ECE70020AB
:101F8000EAE70000E00F00F00A48007806280ED1CA
:101F90000848001D007800F00F0040B905480830DF
:101FA000007800F0F000302801D1012070470020B7
:101FB000FCE70000E00F00F013480078062820D16D
:101FC0001148001D007800F00F00D0B90E4808300D
:101FD000007800F0F000302801D1012070470A4855
:101FE0000830007800F0F000402801D10120F5E72A
:101FF00005480830007800F0F000502801D1012099
:10200000ECE70020EAE70000E00F00F00A48007863
:1020100006280ED10848001D007800F00F0040B9D6
:1020200005480830007800F0F000302801D1012088
:1020300070470020FCE70000E00F00F00A4800783D
:1020400006280ED10848001D007800F00F0040B9A6
:1020500005480830007800F0F000302801D1012058
:1020600070470020FCE70000E00F00F00A4800780D
:1020700006280ED10848001D007800F00F0040B976
:1020800005480830007800F0F000502801D1012008
:1020900070470020FCE70000E00F00F082688388B2
:1020A0001A4003689A5C0A708268521C826070470A
:1020B00001468A68C868801A704701468A68C868FD
:1020C000801A7047C26883881A4003689954C268AE
:1020D000521CC260704770B504460D46E0B2FFF76F
:1020E00073FE204670BD000070B5002600201E491A
:1020F000086048601D49086048601D480078002855
:1021000030D101201A49087004201749C8602020E6
:102110008860C968C800FEF7F5F9054612480561F0
:10212000EDB10146C9680246926801FB02F0FEF774
:10213000E9F9054685B1002409E00B48806804FBF5
:1021400000500949096901EBC4014860641C064854
:10215000C068A042F1DC04E048F2010601E04FF45F
:10216000004600BF304670BDA0520020B45200208F
:102170001400002010B504466079800930B9074882
:102180000749097800EB8100807828B9204600F0E3
:1021900009F808B9012010BD0020FCE7C852002052
:1021A000150000200146074840790322B2EB901F3A
:1021B00006D00879034A1279904201D10120704774
:1021C0000020FCE7180000202DE9FE4F00200190C0
:1021D0008246FEF7E7FDFFF717FAFFF72DF8FFF746
:1021E00027FCFFF779FBFB490868FFF7C9F801F006
:1021F00055F8FEF793FEF848C36DF8A1826DFAA07A
:10220000FEF7B0F98DE3F448406E20B9F24801784A
:102210000198814202D0F04800780190EE48406E6B
:1022200070B10020EC49486608460078062802D1C3
:102230000720087003E002A8FEF73AFD00BF00BFC8
:10224000E54800780D2878D2DFE800F0071628ACC2
:1022500085CAD9F7F6F5F4F3F20000220321022033
:10226000FEF7AAFEFFF716FB41F288310844DA496F
:1022700008630120087008E3D74B1C795B1C1A5DCA
:102280005B1E596A186AFFF723F9FFF703FB00F595
:102290009070D149886002200870F6E220BFFFF7F5
:1022A000F9FACD498968884233D9FFF7F3FA00F586
:1022B0009070C949886004200870FFF77BF9C64810
:1022C0000079401C032190FBF1F201FB1200C1B226
:1022D000C1480171FFF7DEFABF49096B884239D95D
:1022E000FFF7D8FA41F288310844BB490863084631
:1022F000C06D00B100BFC548B7498862C4480068D6
:10230000C8629FEDC40A084680ED070AFEF7DCFEAE
:1023100020E0C148006818B1BF480068032819D9F7
:10232000FFF7B8FAAC4989680C1AAB480379401C2E
:10233000C25CB9480168234600E0A5E2B7A0FEF7F9
:1023400011F9A54B1C795B1C1A5D5B1E596A186A52
:10235000FFF7BEF899E220BF9F48806A68B9012064
:10236000810748609C480079022806D1FEF718FFD3
:1023700000F58E742046FFF741FAFFF78BFA964975
:10238000896888420DD90020AC4908600120810786
:10239000086000BFA94800680028FBD001208E49D2
:1023A000087072E28C48806AC8B98B4B93F855204C
:1023B00093F8541093F85300FEF7FEFDB0EE000AB8
:1023C000854880ED070AFEF77FFE052082490870E8
:1023D000FFF760FA43F6982108447F49086354E206
:1023E0007D4B93F85220596A186AFFF771F806205E
:1023F00079490870FFF74EFA7749886045E208206E
:10240000FFF768FB40BBFFF745FA7349896801F5A0
:102410007A61884212D900206F490870FFF73AFAB2
:1024200004466D482246816885A0FEF79BF813E0BC
:1024300014E21EE2B3E194E172E10EE07648006836
:1024400018B175480068032806D9634B93F85220E9
:10245000596A186AFFF73CF817E24FF000080DF1CF
:102460000809FFF7A7F85C48076A3D46287889F80D
:102470000000687889F80100A87889F80200E878F7
:1024800089F80300FFF706FA8346634808380068B6
:10249000552802D90AF1010A01E04FF0000A4E481E
:1024A00080681830584508D36848006820B95A48F1
:1024B00008380068552800D83AE04748466B082E8F
:1024C00000DD0826444890F8530008B9102000E0C9
:1024D0000820464326B9404880681830584502D243
:1024E0000120810748603C4880681830584504D274
:1024F000202457A0FEF736F8F5E05448006878B974
:1025000045480838006855280AD9BAF10A0F01D998
:10251000202400E00524514653A0FEF723F8E2E012
:1025200008242D48C26D54A00299FEF71BF8DAE08A
:102530002948806928490969B0FBF1F201FB1200C2
:102540002549C96801EB400000902348C06B401C3E
:102550002149C8633846009900F000FD80461E48B6
:10256000406B082817D36879C0F3011098B9FEF7BB
:102570009DFD01208107486000241748466B082E06
:1025800000DD0826144890F8530008B9102000E038
:1025900008204643A6E0B8F1000F06DD0E4880692A
:1025A00040440D498861FEF78FFD00260A4890F8E7
:1025B000530068B9287900F0010050B96879012109
:1025C000B1EB901F02D0B8F1000F68D1052489E06B
:1025D00073E066E0FCFF07003451002031363A35E5
:1025E000373A3036000000005265636569766572DF
:1025F000204275696C64204020257320253038788E
:102600002D3E253038780D0A000000007060000073
:10261000246F00000AD7A33C5015004052665F5358
:10262000746172745278202564206368616E6E65EF
:102630006C20256420746D2025640A000001004090
:10264000544F3A25642025640A000000001400401D
:102650004E6F206461746120666F72206C6F6E67CC
:102660002074696D652E0A00435243206572726FB3
:10267000722025642E0A00004E6F7420626F6E6413
:1026800065642064657669636520646174613A25D8
:1026900030387820253038782E0A0000FFE70B24E8
:1026A00020E068790121B1EB901F02D0B8F1000F52
:1026B00001D10F2416E0142414E0287900F0010061
:1026C00040B968790121B1EB901F01D1032409E0E1
:1026D000062407E068790121B1EB901F01D106249F
:1026E00000E0092400BF052092490870B8F1000FEE
:1026F00001D0012000E0002001462846FEF74EFBF5
:102700003119481EFFF77AF800208B490860012034
:102710008107086000BF884800680028FBD0B4E04B
:10272000844B1C795B1C1A5D5B1E596A186AFEF7A4
:10273000CFFD804B1C795B1C1A5D5B1E596A186AC1
:10274000FEF7C6FE09207B490870FFF7A3F800F1E9
:102750001003FEF725FD00F00F001844754988604E
:1027600093E0FFF797F873498968884216D9714852
:10277000006E18B901206F49087006E06D48006EC0
:10278000401E6C490866082008706A480379401C9E
:10279000C25C401E016E69A0FDF7E4FE75E0FFF724
:1027A00079F864498968884257D9624B1C795B1C67
:1027B0001A5D5B1E596A186AFEF78AFD5D4B1C792B
:1027C0005B1C1A5D5B1E596A186AFEF781FEFFF7F3
:1027D00061F800F11003FEF7E3FC00F00F0018446D
:1027E000544988600846006E20B10846006E401EBD
:1027F000086632E04F48806A78BB4E48C06D58B1D9
:10280000002203210220FEF7D7FB51484949886284
:1028100050480068C8620AE0002203210220FEF747
:10282000CBFB4D48434988624C480068C86203208E
:1028300040490870FFF72EF841F2883108443D49BD
:102840000863B7EE000A084680ED070AFEF73CFC75
:102850003848C16D42A0FDF785FE16E0FEF7AAFEDE
:1028600020BFB7EE000A414801684148FEF71CFB53
:102870000BE0FEF79FFE20BFB7EE000A3D4801685F
:102880003D48FEF711FB00E000BF00BF2948806A09
:10289000C0B32848C668D0F8288040694030254930
:1028A000896988423CD92348C06A22498969451A06
:1028B000802D01DD802515E0002D13DC00251D484D
:1028C00040691C49896988420CD3FEF7EFFB19481F
:1028D00000780C2803D0174800780B2802D1032079
:1028E000144908701348806912490969B0FBF1F274
:1028F00001FB120006EB40060E48806908EB400819
:10290000002405E00DE038F8140026F81400641CDB
:10291000AC42F8DB0748806928440649886100BF5B
:1029200000BF044800780D287FF46DAC0020BDE89E
:10293000FE8F00003451002000010040426F6E64A1
:10294000696E673A2025642043686E3A25640A0060
:102950000CED00000C470100888B000008ED000022
:10296000426F6E6465643A2025780A0080BF0100DA
:10297000ACBA0100A8BA01001047010070B50B46BF
:1029800001461A46002904DB5407250E124C6554F3
:1029900006E05407260E114C01F00F052D1F665559
:1029A00000BF0146002907DB01F01F040122A240FD
:1029B0000B4C4D0944F8252000BF0146002909DBD6
:1029C00001F01F040122A2404C09A40004F1E024FC
:1029D000C4F8002100BF70BD00E400E018ED00E085
:1029E00080E200E070B504460D463148C07E08B173
:1029F000082070BD04B92F4C607F2D490877204610
:102A0000FFF7F8F92A484560294920690860084617
:102A1000406880B3267F0846007FC0B14FF48871BC
:102A2000254800F07CFA4FF49071234800F077FAC3
:102A30004FF49271204800F072FA4FF4A2711E48D0
:102A400000F06DFA1D491C4800F075FA0DE04FF4D6
:102A50008E71194800F037FA4FF4A271164800F051
:102A600032FA1749144800F039FA31460220FFF7CC
:102A700085FF00BF00BF00BF0D48007F28B100BF29
:102A800008201049086000BF05E000BF04200D4980
:102A9000086000BF00BF00BF00200549C875087668
:102AA00088750120C8760020887600BFA1E7000065
:102AB0004853002028C101000020004010030200FC
:102AC000800002000025004070B504460D462848ED
:102AD000007F30B1200C0004B0F1005F01D0102065
:102AE00070BD00262248406868B12148007F28B1A7
:102AF0004FF404711F4800F01BFA04E04FF4017119
:102B00001C4800F0E8F91A48C07DB0B11848007EB2
:102B100090B11748406868B11548007F28B14FF45C
:102B20000471144800F007FA04E04FF401711148F1
:102B300000F0D4F91120D3E701263EB90C48C57541
:102B4000C46000200A494876087602E0084804611B
:102B500005760748007F28B132462946204600F016
:102B600075F8BDE732462946204600F015F8B7E76C
:102B7000485300200020004010B50648007F38B9B7
:102B80000448807E20B900F0D3FB012001498876FB
:102B900010BD0000485300202DE9F04780468946CB
:102BA00016462848807E10B90EB900F0C1FB2548B2
:102BB000406800283FD14FF4A271234800F083F908
:102BC00000BF00BF4FF492711F4800F075F9054631
:102BD0004FF484711C4800F06FF907464FF4A2715E
:102BE000194800F069F9044617B90CB9002DE9D06D
:102BF00005B904B107E000F061FB1248C07D11493E
:102C0000497E8842DDDC00BF00200E49C87515B141
:102C10000320BDE8F0870CB10F20FAE70948807E59
:102C200020B10021084800F065F903E004210648BE
:102C300000F060F904E04FF40171034800F04EF930
:102C40000020E6E748530020002000402DE9F0472F
:102C500004460D4690464FF48871264800F05FF90F
:102C60004FF4A271234800F05AF92248C0F83445C5
:102C70004FF4A7610D5000BFB8F1000F03D1002140
:102C800000F061F908E020201B4909680143194A56
:102C9000C2F8001200BF00BF1848406818BB00BF50
:102CA0004FF48871134800F033F981464FF4A27154
:102CB000104800F02DF907464FF492710D4800F0CE
:102CC00027F90646B9F1000F02D10FB9002EE7D05F
:102CD00000200A49C87516B10320BDE8F0870FB17E
:102CE0000F20FAE704E04FF40471024800F023F9E2
:102CF0000020F2E70020004000220040485300205E
:102D000070B504460D460F48007F30B1200C00041A
:102D1000B0F1005F01D0102070BD0A48807D08B17D
:102D20001120F9E7074885758460002005498882ED
:102D30000846007F10B100F04DF8EDE700F004F810
:102D4000EAE700004853002010B500244FF48E71CC
:102D50001E4800F0B8F808211C4800F0CBF800F03D
:102D6000F9FA1B48406878BB12E000BF4FF48E713F
:102D7000164800F0A1F820B91548808AB0F5807F88
:102D8000F4D11348808AB0F5807F01D000F0E2FAD8
:102D90000F48808A0E49897D8842E6DB0C48808A8C
:102DA000B0F5807F01D10F240BE000BF4FF48E718E
:102DB000064800F081F80028F8D00C21034800F004
:102DC00099F8002002498875204610BD0020004077
:102DD0004853002070B500264FF49071174800F05A
:102DE0009EF84FF4AC71154800F099F81348144B55
:102DF00099689A7DC0F844154FF4A9631A5000BF32
:102E0000082100F0A0F80E484068A8B900BF4FF4B0
:102E100090710A4800F07CF805464FF4AC71074801
:102E200000F076F804460DB9002CF0D004B10F265E
:102E300000200349887500BF304670BD0020004067
:102E400048530020F0B5DDE9054541EA420646EA6F
:102E5000830646EA042646EA0547024E46F82070F5
:102E6000F0BD0000000700507CB505460C46002070
:102E7000009023460246014601902846FFF7E2FFF4
:102E80007CBD1CB50446002000900346012211467B
:102E900001902046FFF7D6FF1CBD000001218140B4
:102EA000014A116070470000080500500146D1F842
:102EB0008004C1F8800470470246505808B10120D0
:102EC00070470020FCE7002242507047C0F8081508
:102ED000C0F810257047C0F808137047C0F80413F5
:102EE00070470246D2F80403084008B10120704739
:102EF0000020FCE7012242507047C0F80C15C0F8D2
:102F0000142570470146D1F88004C1F88004704749
:102F10000246505808B1012070470020FCE700220B
:102F200042507047C0F808154FF4A2631A5070471A
:102F3000C0F808137047C0F804137047014640F208
:102F40003C504058704701224250704740F20C53A9
:102F5000195040F214531A50704700002DE9F04701
:102F600006460F464FF000083446204600F0A2F80F
:102F70002046FFF7FFF800286ED004F106098022F2
:102F800039464846FDF722FF3A49087800EBD071F0
:102F90004910394A1278914203DA364909781029E2
:102FA00016DC3649364A127801EB8201897801290C
:102FB00007D13249324A127801EB8201C978482997
:102FC00006DC2E492E4A127801EB8201497829B39A
:102FD000802504E00021681E27F8101085B2002D1E
:102FE000F8DC26482649097800EB8100C07848289B
:102FF00005DD2448016824A0FDF7B4FA0DE01F4860
:103000001F49097800EB8100407830B919480278EF
:10301000194801781FA0FDF7A5FA00BF20792449BF
:103020000871607901092248407961F3051020494F
:103030004871607981091E48407961F387101C4905
:1030400048710E480E49097800EB81004078184914
:1030500088714FF0800800BF09490978481CC117E2
:1030600000EBD1614911A0EB4111054A11704046B6
:10307000BDE8F0871700002016000020C85200208D
:103080001500002048150040525353493A25642E3C
:103090000A00000048696768206572726F722072CA
:1030A0006174696F3A25642F25642E0A00000000C0
:1030B000180000202DE9F043724F3F7807F11F06FA
:1030C000F71706EBD7677F11A6EB471707F0FF0C42
:1030D000841DE17800263246E670002504E0665D36
:1030E0001644F2B26E1CB5B2442DF8DBE1700F4607
:1030F0004FEAE17801EB58684FEAE818A1EBC818ED
:1031000016464FEAE27902EB59694FEAE919A2EB58
:10311000C919C84502D04FF0010801E04FF000087E
:103120004346594E574F3F7806EB8706B6789E4286
:1031300013D0012B08D1554E3678202E04DA534E89
:103140003678761C514F3E703BB9504E367826B1DA
:103150004E4E3678761E4D4F3E7006794A4FDFF858
:10316000248198F8008007F82860467AF609DFF88D
:10317000148198F8008007EB88077E70424E414F1B
:103180003F7806EB8706B370414E36683E4FDFF856
:10319000F48098F8008007EB8807FE703A4F17F824
:1031A0002C707E1C384FDFF8DC8098F8008017F810
:1031B00028704FEAE67806EB18684FEA2828A6EB55
:1031C000082847453AD0DFF8C080DFF8B89099F872
:1031D000009018F8298008F58078DFF8AC9019F88D
:1031E0002C90A8EB0908A8F101064FEAE67806EB57
:1031F00018684FEA2828A6EB082808F0FF07254E94
:103200003678BE4207DD234E3678F61BDFF8848021
:1032100088F8006004E00026DFF8788088F8006015
:103220001C4E367826B90026DFF8608088F80060EA
:103230000026DFF86480C8F838600DE0154E367857
:10324000202E04DA134E3678761C124F3E70124E42
:10325000B66B761C104FBE630B4E0A4F3F7806EBE1
:10326000870676784EB14679C6F301162EB90A4E16
:10327000766B761C084F7E6302E00026064F7E6365
:10328000BDE8F08315000020C85200201600002081
:1032900048150040170000203451002010B50020D0
:1032A000054908710846407920F0C000C0304871D7
:1032B000FEF71AFF10BD00001800002010B51048DE
:1032C000C07D40B94FF484710E48FFF7FCFD00BF8C
:1032D0000D48006810BD4FF484710A48FFF7F3FDF4
:1032E00000BF09480068C0B20549C968044A527E57
:1032F00088540348407E401C0149487600BFE9E7F6
:103300004853002000200040182500407FB50446A7
:103310000D4601208DF800008DF808400195034806
:1033200001684268684690477FBD0000485300200E
:1033300010B54FF492710648FFF7C5FD4FF4847144
:103340000348FFF7C0FD00210148FFF7D3FD10BD82
:103350000020004010B54FF48E710948FFF7B3FD0F
:10336000084880680749898A445C0648808A401C6E
:103370000449888220460449086000BF10BD00004F
:1033800000200040485300201C2500401FB5044683
:1033900000208DF800008DF80840064880680190F4
:1033A00000200449887508460168426868469047CD
:1033B0001FBD00004853002038B50446207802287D
:1033C00014D02078012804D100BF6068FEF73AFCD1
:1033D0000CE0207850B96846FEF774FC052804D04C
:1033E0009DF8001002A0FDF7BDF800BF38BD000039
:1033F000256300007CB504460E462078012827D1BD
:10340000606801782648FEF74BFC054645B101206F
:103410008DF80000019568462249096888470BE04D
:103420001F48FEF745FE012806D100208DF8000058
:1034300068461C49096888471948FEF739FE18494B
:103440008988884203D801211748FFF73DFB25E012
:10345000207802280CD18DF80000E068019001214D
:103460001148FFF731FB68460E490968884715E0A7
:10347000207898B90D490E48FEF7F1FB18B90121E3
:103480000A48FFF73DFC0A48FEF712FE30B9032058
:103490008DF8000068460349096888477CBD000034
:1034A00068530020240000202A000020280000206B
:1034B000785300207FB54FF400715448FFF711FD99
:1034C00068B34FF492715148FFF7F6FC38B34FF4EC
:1034D00092714E48FFF7F7FC4FF401714B48FFF72C
:1034E000FAFC4B48807E18B904214848FFF702FDDA
:1034F00002208DF800004548FFF7D8FC03904448AF
:10350000C17D8DF80810C068019000204049C87541
:103510000876084601684268684690473CE0042106
:103520003A48FFF7DEFC002836D04FF48471374864
:10353000FFF7C2FC00282FD0FFF7C0FE3448C07D43
:103540003349497E884227D13148007E80B13048D6
:10355000C468457E007E2E49C87508460069C8606B
:1035600000200876487621462846FFF7CFFE13E074
:103570002748807E18B904212448FFF7BBFC4FF48C
:1035800001712248FFF7A7FC00202149C8750A46AF
:10359000D168507EFFF7BAFE4FF48E711B48FFF7DB
:1035A0008BFCA0B11A48808A1949897D884202DAC9
:1035B000FFF7D0FE0BE04FF48E711448FFF783FC49
:1035C0001348807D18B11249887DFFF7DFFE4FF464
:1035D000A2710E48FFF770FCB0B14FF4A2710B4816
:1035E000FFF771FC0A48807E18B100210748FFF7F9
:1035F00081FC0748C07D38B100200549C8750A46DE
:10360000D168507EFFF782FE7FBD000000200040A1
:10361000485300207FB54FF492714648FFF778FC7D
:10362000F0B14FF492714348FFF779FC02208DF816
:1036300000004048FFF766FC03903E48FFF77EFC21
:10364000C1B28DF808103C48C068019000203A498A
:10365000C87508760846016842686846904737E0B2
:103660004FF488713348FFF753FC002830D04FF4F3
:1036700088713048FFF753FC2E48FFF75FFCC4B257
:103680002D48C07DA04222D12B48007EB8B12A48E7
:10369000C5682020294909688143264AC2F80012DA
:1036A00000BF2548007E2449C87508460069C860E7
:1036B0000020087629462046FFF728FE07E0002074
:1036C0001D49C8750846C1682046FFF71FFE00BFA8
:1036D0004FF4A2711748FFF71BFC98B14FF4A27189
:1036E0001448FFF71CFC1448C07D58B10020124953
:1036F000C8751048FFF722FCC4B20F48C1682046C5
:10370000FFF704FE4FF490710A48FFF701FC78B10F
:103710004FF490710748FFF702FC0748807D38B1ED
:10372000044840F24C510958CCB22046FFF72EFE17
:103730007FBD0000002000404853002000220040D0
:1037400010B591EA030F48BF83F0004300F1E68112
:10375000841A71EB030C05D2121943EB0C03001B06
:1037600061EB0C01DFF824E14FEA1154A4EB135C88
:103770001EEA430F18BF9EEA445F73D023EA0E038C
:10378000DCF1200E21EA045143F4801332D322FAF3
:103790000CFE10EB0E0023FA0CFE41EB0E01CCF1F7
:1037A000200E03FA0EFE10EB0E0051F10001B1F5F0
:1037B000801FCCF1200E32D201EB045112FA0EF22E
:1037C000BDE8104058BF7047401C38BF5FEA420256
:1037D00018BF7047002814BF20F0010041F100011C
:1037E0004FEA410313F5001F38BF7047A1F1C041F4
:1037F00000F086B9012A43EB0302ACF1200CDCF1A6
:103800001F0E32BF4FF0000E23FA0CF310EB030033
:1038100041EB0451B4EB115FD0D0A1EB045101F5A1
:10382000801149085FEA300001EB04510ED350F1DA
:10383000000038BF12FA0EFE08D1BDE81040C9E7FB
:10384000401C38BF5FEA4202CAD1C3E7BDE810405E
:103850004FEA410313F5001F38BF7047A1F1C04183
:1038600000F04EB99EEA445F08D011EA5E0FBDE851
:10387000104004BF01F0004100207047BDE8104037
:1038800070B500F0EFF800BF64FBBE3E0000E0FF43
:103890004FEA1153A3F58063D3F11E03A8BFD3F100
:1038A000200C08DB4FF0004242EAC12252EA50529B
:1038B00032FA03F0704709420BD4102BC4BF00202A
:1038C000704703F5787CBCF1FF3F05D04FF0FF3027
:1038D00070474FF00000704770B500F0C3F800BFAC
:1038E0004992248000207047F0E7B0FA80F310FA84
:1038F00003F10AD0C3F11D0303F580634FEA415081
:103900004FEA035202EBD12170474FF0000070479D
:10391000DFF848C170B51CEA111E1EBF1CEA131562
:103920009EEA0C0F95EA0C0F00F06F8081EA030409
:1039300023EA4C134EEAD47E21EA4C1141F4801163
:1039400043F48013AE44A1FB024CA0FB0365AEF12F
:103950007F7E361955EB0C05A1FB034C4CF100039F
:10396000A0FB021C16EB0C06654153F10003094253
:1039700018BF46F0010613F4007F0BD14FEA033164
:103980004FEA0530340341EA155140EA16506FF012
:1039900003020AE04FEAC3214FEAC520F40241EADC
:1039A000555140EA56506FF0020202EB2E4201EBF5
:1039B000025585EACE710AD05FEA440C18BF24F0A4
:1039C000004450F1000041F1000120EAD47040F2BF
:1039D000FE7C624500D270BDA84214BF4FF0804407
:1039E0004FF04044002E08BF0024BEF1806FA8BFF6
:1039F000A1F1C041BDE8704080F282804FF000002C
:103A000001F1C04101F0004170479EEA0C0F0CEA41
:103A1000131518BF95EA0C0F06D04FF0000081EA8D
:103A2000030E0EF0004170BD00F01CF88900013E4D
:103A300000F007B800F009B84FEA430C5FEA5C5C9D
:103A400008D081EA030100F05BB84FEA410C5FEA5D
:103A50005C5CF6D14FF00000014970470000FF07A1
:103A60000000F87F0EF1020E2EF0030E5EF8046BDC
:103A7000364205D4012A43EB030515F5001F12D881
:103A8000012841EB010C1CF5001F0CD80ED14FEAA8
:103A9000D17C15F5001F0CEB4C0C0CF1020C08BF8F
:103AA0004CEBD37C04E04FF0080C01E04FEAD37CF0
:103AB0000CEB4C0526FA05F606F00706B6F1040CE9
:103AC00006D20EEB860CBDE870404CF0010C60474E
:103AD000DFE80CF0090B02024FF000414FF000004C
:103AE000A1F5002170BD19461046012851EB0104D3
:103AF00018BFD4F5001484BF002001F0004170BD50
:103B00000808A0F500114FEA3101704710B591EA9D
:103B1000030F48BF83F000433FF51AAE841A71EBE0
:103B2000030C07D212198CF0004C43EB0C03001B62
:103B300061EB0C01DFF8A4E14FEA1154A4EB135C34
:103B40001EEA430F18BF9EEA445F00F0B08023EAEC
:103B50006E03524221EA0451C3EB6E0338BF5B1E71
:103B6000DCF1200E25D322FA0CFE10EB0E0043FAF6
:103B70000CFE41EB0E01CCF1200E03FA0EFE10EB11
:103B80000E0051F10001CCF1200E29D412FA0EF2F0
:103B900001EB0451BDE8104058BF7047401C1CBFEA
:103BA000B2F1004F704700280CBF491C20F0010003
:103BB000704712EB020E43EB030218BF4FF0010EE9
:103BC0004EEA4202ACF1200CDCF11E0E54D943FA4D
:103BD0000CFE10EB0E0051F1FF31CCF11E0ED5D5CD
:103BE0000EF1010E12FA0EFE404141EB010101EB14
:103BF000445C5FEA5C5C10D910EBDE7001EB0451B1
:103C000038BFBEF1004FBDE8104018BF7047002814
:103C10000CBF491C20F00100704730D24FEAD42C71
:103C200011F5001124F400641BD0B1FA81F20B3AB3
:103C3000A41AA41ED2F12003914030FA03F31943D1
:103C4000904001EBCC71002C01EB0451BDE8104019
:103C5000A8BF704701F1C0414FF0000001F00041E2
:103C60007047B0FA80F310FA03F100D110BDE41AE6
:103C7000173C4805C90AE4E701EB045110BD49109F
:103C800001EB0451BDE810404FEA300002E04FF074
:103C9000000170474A0008BF0042F8D0B2F5001F8B
:103CA00028BF704701F000414FF0000070479EEAC6
:103CB000445F07D011EA5E0FBDE8104004BF002149
:103CC00000207047BDE8104070B5FFF7CBFE00BF85
:103CD00040DFF63E83F00041104670470000E0FFF1
:103CE0004FF04070E1EE100A704700001312FFFF22
:103CF0000000000000E0D70109001B00240029009B
:103D00001F000A0001000800110019001B00180024
:103D10001600130009000000FDFFFBFFF5FFF3FF95
:103D2000F7FF01000B000A0005000600090007006C
:103D30000400FFFFFBFFFFFF0B000F000500F8FF73
:103D4000EAFFD3FFBFFFC0FFD0FFD8FFDCFFE7FFD4
:103D5000F0FFF0FFEDFFEAFFECFFF6FFFEFFFBFFD9
:103D6000F3FFECFFECFF0000220034002300090009
:103D700004000C000D00060008000E000E000F00ED
:103D800012000C00FBFFE2FFC2FFA3FF8CFF89FFC4
:103D90009EFFB8FFBEFFBCFFCDFFDDFFCBFFADFF39
:103DA000B2FFD4FFE3FFD8FFD6FFE5FFF2FFF8FF35
:103DB000030013001F001B000700F8FFF7FFF4FFCC
:103DC000EAFFECFFFDFF0B000700FAFFF1FFF1FF38
:103DD000F8FF02000E0019001D001A00180016005E
:103DE0000C00FCFFEAFFD7FFD3FFE3FFEBFFE6FF8A
:103DF000E5FFE9FFE1FFD4FFC8FFBFFFBDFFC4FF40
:103E0000CCFFD2FFDAFFE7FFF7FFFDFFECFFDDFF9E
:103E1000EAFFFAFFF4FFEFFFF9FFF6FFE6FFE3FF2B
:103E2000EAFFE6FFE0FFE4FFE4FFDBFFCFFFC2FFB6
:103E3000BFFFC9FFD0FFD3FFE2FFF7FFFBFFF4FF97
:103E4000F3FFF5FFFEFF170032003A0035002F00A8
:103E50002500240028001300F3FFEEFFE7FFC5FF55
:103E6000D1FF21004E003000170023003000270052
:103E70000800E9FFE5FFECFFF2FFFFFF0900FFFF8D
:103E8000F6FFF5FFECFFDDFFD8FFE0FFF0FFF6FFE8
:103E9000E8FFE2FFF0FF01000E0017000F00FCFF3B
:103EA000EDFFE5FFE8FFFAFF09000200F4FFF5FF70
:103EB000FEFF000000000C0013000200F1FFF4FF01
:103EC000000005000100FEFF0C0024002F0025006B
:103ED000170015002400350036002C0020000D00CE
:103EE000F8FFE8FFD9FFD0FFD4FFDAFFDAFFE0FFE9
:103EF000EFFF04000B00F9FFE4FFE1FFE7FFEBFF3A
:103F0000F6FFFFFF03000B00180028003300280015
:103F10000A00EBFFCEFFB8FFBBFFD2FFEBFFFCFFB9
:103F200007001C003100240019004C006E00220024
:103F3000D1FF040069005D00F8FFD8FF21005300A5
:103F40002100D5FFD2FF0F003C002D000300EDFF44
:103F5000F0FFF4FFDEFFE9FF9400CD0144032905E3
:103F60003C0611037DFB1CF514F422F652F875FB98
:103F700088000B06420A8D0C900C190ACB05DF0055
:103F800040FC46F853F51FF43BF594F848FDF10169
:103F9000930513088B09A3090208E204E50098FCC5
:103FA0009BF8EFF551F58EF626F9E8FC4B01250557
:103FB000A307C408AD0844079104ED00FAFC9EF97C
:103FC000C8F7C0F721F975FB74FEB4019F04AC0675
:103FD0007F0703075C05D902DDFFD4FC41FAC9F86D
:103FE000DAF84FFAC3FCCEFFC902F204F305E70585
:103FF000EF041D03B40037FE15FC85FACBF94DFA2A
:1040000024FCCBFE6B017D03E60488052005C50377
:10401000FC011C0038FE9AFCAEFB95FB3DFC9AFDB2
:1040200067FF3101C0020204B4049904AB03E30149
:1040300053FF9DFCB1FA19FADAFABAFC54FF2002D8
:104040009E045606DE0615064D04F60157FFE4FCF5
:104050004EFBC9FAFBFAD7FB9EFDFFFF40020704A7
:1040600021053A054804C102030116FF24FDA9FBFE
:104070000BFB44FB3CFCFDFD480082024604880526
:1040800009067205DC03A9011DFF9CFCB8FAB3F90F
:10409000A0F9B7FAE4FC85FF09024F041E06EA0600
:1040A0004A065504860181FED9FBF4F917F984F913
:1040B0005EFB4EFE98019104B5068A07F2064B0599
:1040C000FC022A0005FD0BFA07F8A2F7E1F856FBFF
:1040D000ABFE8002150683081F09BD07D104390114
:1040E000B5FDA4FA6CF8A5F795F8CFFA99FD69002B
:1040F000E302DA045B063A07EB062405570244FFA5
:1041000054FCC9F93FF855F8E7F954FC46FF85021D
:104110006D055A07020814076204AF006EFD6CFBC0
:1041200058FACBF900FA4BFB7EFD1D00A3029F0459
:10413000C105DA05DB040903C90044FEADFBAFF994
:1041400012F908FA12FC92FE2E01A2037F055E0608
:104150000E0695043C0291FF1BFD2BFBFAF9C3F9F7
:10416000B2FAB0FC55FF0A024A04B70523068205DD
:10417000DD037401D2FE6FFC8BFA78F99FF90DFB19
:1041800061FD280002037205E7060107B8053F0339
:10419000FAFF95FCE6F978F863F8AAF945FCB0FF58
:1041A0000803A6052C074F07FA0575033600D7FC50
:1041B00010FA81F886F815FAB0FCB8FFA9020105DB
:1041C00054067706640536035F0091FD59FB17FA24
:1041D00011FA42FB45FDAAFF160223046905B40546
:1041E000FC045A032701FFFE50FD31FCBBFB20FC01
:1041F00049FDCFFE5F00CF01E00258033503920274
:104200007C011500B0FE9BFDF2FCCAFC52FD93FE42
:104210003600BA01C7023203E502F4019B0029FF10
:10422000F7FD5CFD75FD19FE0FFF32004A01020229
:104230002D02E0013701400026FF47FEF9FD47FE51
:10424000FBFED7FFB1006301BE01A6011A013C00CD
:1042500047FF77FEF5FDD8FD2EFEE1FEC9FFC60043
:10426000AF0138022E029D01B20095FF88FECAFD03
:1042700071FD87FD25FE35FF6C007A0120024702A3
:10428000FC014B013700F4FEE5FD4EFD41FDB9FD9B
:10429000A6FEF0FF6A01B8026903330319026E003B
:1042A000AAFE2CFD36FCFBFB97FC02FEF3FFEC01A3
:1042B00067031504DC03CE022F0169FFD7FDB2FCB2
:1042C00025FC56FC55FD00FFFB00C80209049204C2
:1042D0003C04E602C60074FE84FC50FB27FB2EFC67
:1042E00021FE6D0094024C0442052605F103F901FC
:1042F000BFFFACFDFFFB00FBFCFA01FCD4FD24007A
:1043000087026C0450050905B603AD0164FF4CFD3E
:10431000C1FB1CFB9FFB2DFD4AFF67011D0326040B
:104320006104D803BA024001AAFF43FE43FDC6FC64
:10433000E1FC95FDB1FEE9FF0A01EF016C026F029D
:1043400012027D01C50006007FFF59FF61FF3EFF9D
:10435000EAFEB9FEDDFE36FFA2FF2100A4000F0138
:104360005B019D01C2019101ED00F6FFDCFED2FD73
:1043700014FDD9FC3CFD3DFEACFF30017B02610326
:10438000AE032D03F8017700FAFEA1FD94FC09FCB1
:1043900029FCF9FC5AFE0400A101E1027B0353034E
:1043A00086025501FAFFA5FE8EFD06FD3FFD19FEB2
:1043B00042FF70006F010B022102BA010F01510090
:1043C0008CFFCCFE40FE19FE58FED5FE74FF1A008D
:1043D0009900D800F6000C01F40099002C00DFFFD2
:1043E000ACFF7EFF47FF0FFFF9FE21FF7BFFF6FFCB
:1043F0008D0025019301B1017401E10010002CFF33
:1044000064FEE3FDC5FD13FEC9FEDFFF2501450285
:10441000F10200036B024501B8FF10FEB0FCF0FB97
:1044200002FCF3FC9FFEB400C2024C04E6046604E6
:10443000F602ED00CBFE13FD1AFC01FCD0FC56FE8B
:104440002A00DA012403DC03D90304038101A4FF59
:10445000CCFD74FC07FC9CFCF1FDA7FF4F0183021F
:1044600015030503640260013D0038FF77FE18FE66
:1044700026FE90FE27FFB6FF200066009200AA00ED
:10448000C000E40005010301D0006B00DEFF51FF16
:10449000F7FED5FED0FEDFFE18FF88FF2300C50023
:1044A00043017E0172012A01B50027009CFF2AFF0B
:1044B000E8FEEBFE2BFF82FFCFFF120055009C00B1
:1044C000E5002101490160015401F9004E0083FF1C
:1044D000B8FE07FEA5FDC2FD5BFE5DFFAE00120249
:1044E0003603CA0390037A02C400D5FE1BFD00FC0C
:1044F000CCFB8BFC0EFEF6FFCC012603C00385032C
:1045000089020D0177FF29FE5FFD3BFDC8FDD4FE4A
:10451000FEFFF0007901960171013601F500B90046
:104520008B0067005300400006008FFF01FF9AFEDA
:104530008CFEEAFEA4FF8E007E014302A102690206
:104540009E01740034FF31FEA9FDB3FD48FE37FF24
:1045500032000501A101DE018F01ED0067001800A6
:10456000D9FFA8FFA4FFCBFFF5FF07000300F7FF6B
:10457000F0FFF5FF0A0028004800600064005000CA
:1045800037001700DCFF8CFF5AFF6BFF9DFFBAFF5F
:10459000C0FFCAFFD4FFD3FFDAFFEEFFF9FF04002C
:1045A000220046004F003300EFFF8DFF2BFFE5FE9A
:1045B000CDFEF1FE50FFCCFF39007F009500740066
:1045C0002100BFFF7AFF5FFF63FF82FFBDFFF7FFA0
:1045D0000100C8FF74FF3EFF40FF73FFD5FF490095
:1045E0009900A9007B00150085FFF7FE99FE84FE67
:1045F000C8FE5EFF2000D8005A017D011D014E005B
:1046000057FF82FEFFFDF7FD7AFE5AFF4600EF00DE
:104610002401D80033007AFFE9FEA7FEC1FE2AFF7D
:10462000C2FF5F00D8000C01EB007E00E5FF46FFF3
:10463000CDFE9CFEC2FE33FFC9FF5900C300F60049
:10464000EE00B6006D0030000400D9FFA6FF71FF38
:1046500059FF6BFF8CFFA7FFD1FF1B0068009A007A
:10466000AE00A10069000B00ABFF77FF76FF83FF70
:104670008DFFA7FFD4FFF1FFEEFFD9FFC7FFCFFFEC
:1046800004005F00B700EE00E9008A00E0FF32FF9F
:10469000B1FE5DFE3FFE75FE09FFE0FFBE00640156
:1046A000B001A7015501B500CDFFD1FE1DFEECFD07
:1046B0002DFEAEFE55FF1100B90026014A012C0166
:1046C000E300920048000000B4FF6DFF29FFECFEFC
:1046D000D1FEEEFE3BFFAAFF3600CE005701AE0131
:1046E000B30150019900C4FF03FF70FE2BFE4FFE83
:1046F000CEFE83FF4A00FB006D018E015501C6000E
:1047000015008DFF45FF1BFF0AFF25FF6AFFBAFF5B
:1047100000003C007200930094007C0060003900AF
:10472000FAFFB4FF8DFF87FF8EFFA1FFCCFF0200D1
:104730002D0040003E002B000B00F0FFF2FF1700A1
:104740004F008500A20098006C002200BCFF52FFC1
:1047500013FF19FF63FFDEFF6F00F10042015601F6
:104760003701EE0085000D009BFF48FF28FF3DFF4D
:1047700074FFBAFF040049008600BA00D700DB00CE
:10478000D200BB007C00030061FFC6FE68FE6CFE29
:10479000D6FE92FF72003E01C801F601B7010C017E
:1047A000150011FF39FEB4FDA3FD19FE0BFF4A00F1
:1047B00088017B02EE02C4020802F400C6FFAEFECE
:1047C000D8FD6FFD88FD20FE24FF5C0085016D0291
:1047D000F602FB0272027E01560023FF15FE68FD01
:1047E00042FDA2FD77FEA2FFF2002602FF02570360
:1047F0001F0357021B01A9FF52FE5DFDFAFC37FDA6
:1048000003FE39FF9C00D6019902BB0244026401F9
:104810005A005EFF9FFE33FE1EFE58FED8FE7FFF4D
:1048200021009C00EB0012010F01E800B900950087
:104830006F003100DFFF97FF6BFF4EFF3DFF48FF2A
:1048400075FFB8FF11007900D7001101270126017B
:104850000F01D1006300DFFF62FFF5FEA3FE85FEBE
:10486000B0FE21FFBDFF660009019501F2010402BF
:10487000B001EE00DFFFC3FED7FD50FD54FDEFFD9C
:1048800008FF5B0098018402F602CC02FA01AF0037
:1048900044FF0DFE3CFDF1FC47FD3DFEA0FF130172
:1048A0003402C702C00232023C011100EBFE04FEDA
:1048B00080FD77FDE8FDBDFEC7FFCC009A01130225
:1048C0002402C30109012C0060FFC1FE5EFE40FE10
:1048D00070FEEAFE95FF4700E2005A019B0181014C
:1048E00006015A00B1FF21FFBEFE9DFEC4FE20FF5F
:1048F0009AFF1C009600F6002B012E010001A80073
:104900003200B2FF3FFFF2FED9FEEEFE35FFB0FFF0
:104910004C00E20055019E01AD016701CD000B0086
:1049200051FFC1FE76FE81FEE1FE80FF3900E60008
:104930006C01BA01B9015C01C3001C007AFFEBFEF7
:1049400091FE90FEE4FE65FFF6FF900018016701FE
:10495000760158010F01980008007DFF0DFFC9FE88
:10496000C7FE14FFA2FF4700E0006001AE01A701EF
:104970004701AD00FCFF54FFDDFEB1FED6FE3DFF5A
:10498000CEFF6900F3004F016B014601F000830088
:104990001900B3FF50FF0BFFFDFE1BFF53FF9CFFF1
:1049A000EDFF3E008700B700BD009F0069001C00BE
:1049B000B9FF5BFF25FF1DFF26FF32FF52FF90FF6F
:1049C000D8FF1F006A00A600B60092004D00F9FF54
:1049D0009EFF40FFEFFEC7FEDAFE1DFF7CFFEDFFEE
:1049E0006E00E50025011301C3005200D4FF59FFFA
:1049F000F5FEB8FEAAFECEFE1FFF8EFF0500730077
:104A0000C900F200DE008D000C006FFFDBFE6FFEC0
:104A10003AFE47FE99FE1CFFBBFF5F00EE003E0121
:104A20003201D8004F00ABFFFFFE73FE2DFE36FEB5
:104A300088FE1BFFD6FF920025016E016101060171
:104A40007100C6FF23FF9CFE51FE5DFEB8FE46FFCF
:104A5000F4FFAE00470195018E013C01AF00FFFF5E
:104A600054FFD0FE82FE71FEA5FE19FFB0FF430089
:104A7000B6000C013C012D01DA006000DCFF63FF91
:104A800008FFDAFEDEFE17FF83FF0F009B000B011D
:104A90004A01490104018B00FBFF69FFF8FED2FEC9
:104AA000FDFE5AFFCEFF4700BA0013014501480141
:104AB0001201A5001F00A1FF39FFF6FEF4FE2FFF33
:104AC0008DFFFBFF6A00B800D000BC008F005200D1
:104AD0000600BCFF87FF6FFF73FF8EFFB9FFE5FF86
:104AE00008001D002200230033004D0053003F004A
:104AF00027000F00EBFFC3FFA3FF86FF75FF8EFFAC
:104B0000D0FF1B0059008800A1009C007C004700DA
:104B10000200B2FF65FF30FF28FF56FFA4FFF3FF3E
:104B20003B00750092008B006D0045001700E3FF0D
:104B3000A6FF66FF31FF0EFF07FF2FFF86FFF9FF7D
:104B40006700B800DD00D10094002C00AFFF3AFFF1
:104B5000ECFED7FEFCFE51FFC8FF4400A700DF00BB
:104B6000EA00C50076000F00A6FF4BFF0CFFF9FE20
:104B700016FF55FFA7FF00004F008D00B800C800CA
:104B8000B1006F001000ACFF57FF1AFF01FF19FFC3
:104B90005DFFBDFF1E0066008D0096007B00440097
:104BA0000E00DCFFA5FF78FF6DFF81FFA2FFC9FFAC
:104BB000FBFF3A0073009800A900A7008700470098
:104BC000F9FFB4FF80FF57FF3FFF49FF81FFDBFF85
:104BD0003A008700BE00DB00D400AD006F00190072
:104BE000B3FF60FF41FF59FF9BFFF8FF5F00B90073
:104BF000ED00EB00B90067000700B0FF7BFF6EFF20
:104C000082FFA8FFD8FF13004F00780084007C00CB
:104C10006D005D004A003A0035002C000B00DFFFFC
:104C2000C8FFCCFFDEFFFDFF31007400A900BE000D
:104C3000AF00820041000200D4FFB7FFACFFBDFF10
:104C4000E9FF27007000B700E500F000DD00B400C8
:104C500077002B00DEFF9FFF7DFF7BFF92FFB8FFF9
:104C6000F0FF38007F00B400C800B20078003100C7
:104C7000EDFFAFFF7AFF5BFF63FF91FFD6FF2000E0
:104C800064009900B600B70098005A000F00D5FFE5
:104C9000B6FFABFFAEFFBEFFDAFF0A004B00850098
:104CA000A800B200A600850056001C00DDFFA9FF89
:104CB0008BFF89FFAAFFE9FF32007700AB00BD0040
:104CC000A9007E004100F6FFA8FF6AFF4BFF56FFD8
:104CD0007EFFB0FFE2FF130043006E0088008400F7
:104CE0006D0054003A001700EDFFC7FFB1FFADFFA4
:104CF000BCFFDEFF0F00430072009500A500980086
:104D0000710039000100D2FFB5FFACFFB4FFD6FF40
:104D100011004B006A00740072005E003E00250026
:104D200016000A0007000E0014000900EFFFD8FF6C
:104D3000D2FFDDFFF4FF16004400730091009800DD
:104D40008A0067003400FBFFC3FF99FF94FFBCFF9C
:104D500002005600A400CF00CB00A3005A00F9FFC8
:104D60009AFF5AFF47FF61FFA4FFFDFF56009B001B
:104D7000C500C80095004000ECFFA5FF71FF59FF7A
:104D800063FF8CFFD0FF1F0061008C009F00990023
:104D900077003A00ECFF9DFF5BFF3AFF4BFF88FF77
:104DA000D5FF210069009F00B700AB007D003C00EB
:104DB000F6FFB5FF7FFF62FF61FF79FFABFFEEFFFC
:104DC00034007700B400D700D000A70064000C00C6
:104DD000ABFF52FF12FF00FF26FF76FFDBFF430011
:104DE0009E00D500DF00BD0078001800AEFF54FF24
:104DF00020FF14FF21FF49FF91FFE7FF34006D0002
:104E00008800790048000A00C7FF82FF4AFF35FF8B
:104E100049FF7AFFB5FFEBFF18003A004C0049004C
:104E200037001B00EFFFB4FF83FF67FF5BFF63FFEB
:104E300084FFB7FFECFF1A003A004A0047002E003B
:104E40000600DDFFB2FF84FF5BFF45FF4BFF6EFFF7
:104E50009EFFC8FFECFF070011000900F9FFE7FF04
:104E6000D3FFB9FF9EFF8DFF88FF85FF81FF7EFF87
:104E700083FF93FFAEFFCCFFECFF090016000D008F
:104E8000F4FFCCFF97FF66FF4BFF4EFF6AFF99FFD1
:104E9000D3FF11004400630066004A001300CEFFF8
:104EA00085FF46FF1FFF19FF3CFF86FFE5FF44001B
:104EB0009200BC00B50084003800E3FF92FF4DFF74
:104EC0001EFF0FFF26FF61FFB1FF0600570097008E
:104ED000B600AD0087004D000100AFFF6EFF48FF38
:104EE0003DFF52FF82FFC8FF1B00650092009B0040
:104EF00088005B001E00E4FFB7FF96FF85FF85FF7B
:104F000095FFB0FFD2FFFDFF2C0053006600640048
:104F1000530034000800D5FFA9FF8DFF80FF82FFFA
:104F20009AFFC8FFFBFF28004A005B0058004000C2
:104F30001400E0FFB7FFA0FF97FFA0FFC0FFF3FF43
:104F40002C005E0081008E00840060002900EAFFD2
:104F5000AFFF86FF75FF86FFBBFFFCFF30005300ED
:104F6000660064004D002A00FEFFCDFFA5FF94FF00
:104F70009EFFBEFFEBFF200051006D006D0055004D
:104F80002A00F1FFB9FF90FF84FF96FFC1FFF9FFF0
:104F900030005700680069005B0046002F001A00CF
:104FA0000700F8FFEDFFE5FFE2FFE2FFE5FFEFFF9F
:104FB00000001400260031003300300029001E00DC
:104FC00011000600FEFFFFFF0A00150018001B007D
:104FD0001F001B000E0008000B00100014001C0036
:104FE000230027002A0029001F000B00F4FFE4FF24
:104FF000E5FFF4FF0B002200300037003D003C00CD
:1050000028000A00F1FFE6FFE8FFF1FFFBFF0100C7
:1050100006000D0011001200120010000700FAFF38
:10502000F1FFEDFFEBFFEDFFFCFF15002F0040004F
:10503000430039001D00F7FFD5FFC2FFBFFFCDFFC2
:10504000EFFF1C00460065007100630042001A007B
:10505000F4FFD8FFCCFFD4FFEFFF140034004E0064
:1050600068007A007800640044001E00F7FFDAFF51
:10507000C6FFB9FFB8FFC4FFDDFF040033005E00C8
:105080007C008500720044000B00D8FFB1FF9BFF3D
:105090009DFFAFFFC7FFE5FF0700250044005D004F
:1050A00066005E004B002900FFFFDCFFC2FFB3FF7C
:1050B000B5FFC8FFEAFF1A004A006B007F008A00B4
:1050C000850065003400FDFFD0FFB4FFA9FFAEFFEF
:1050D000C0FFDCFF07003E006C0081008100730010
:1050E00059003000FCFFC8FFA0FF85FF7DFF8CFF4B
:1050F000AEFFDBFF12004D008300A600A900870071
:1051000052001900D9FF9CFF7BFF7FFFA4FFDFFF48
:1051100021005D008A00A500A60084004B000C0061
:10512000D2FFA5FF94FFA2FFC5FFF3FF21004600B9
:105130005F006B006700580045002F001800020058
:10514000EDFFDDFFDAFFE5FFFBFF16002C00390065
:105150004000490050005000460031001F00180078
:1051600015000D0009000D001200180026003B007C
:1051700052006000650064005B0049002F000E00D3
:10518000EFFFE0FFE2FFEAFFF3FF01001B003F003B
:105190005B005F0051003E0023000100E3FFD1FFF0
:1051A000CAFFCFFFDCFFF3FF16003B0054005E0098
:1051B000620059003F001A00F6FFDAFFCEFFD4FF6D
:1051C000E7FFFFFF1C0040006500810087007000C2
:1051D000490023000100DBFFBDFFB4FFBEFFDFFF7E
:1051E00016004A00670074007600680048001B0043
:1051F000E3FFB3FFA1FFABFFC5FFE7FF09002500F9
:105200003B0043003A002F00270016000000F4FF87
:10521000EAFFD6FFC7FFC8FFCDFFD2FFE0FFF5FFD3
:1052200010002F0042003D002B001800FDFFD8FFAA
:10523000B5FFA7FFB0FFB6FFACFFB0FFDEFF220057
:1052400050005500440032001800DDFF92FF61FF5E
:105250005AFF6CFF8CFFB2FFDAFF080038005800DD
:1052600058003A000600CBFF9DFF81FF69FF4FFF0A
:1052700048FF63FF94FFCFFF070033004C0052004C
:1052800046002C000600D3FF9DFF7BFF76FF7FFFCB
:105290008CFF9CFFB8FFE2FF0F0025001B000600FB
:1052A000F6FFE6FFD1FFBAFFA2FF8EFF88FF90FF57
:1052B0009BFFAEFFC9FFD7FFD3FFD4FFE7FFFBFF84
:1052C000FEFFE8FFCFFFC7FFC3FFB0FF99FF8AFFD4
:1052D00086FF9BFFCDFFFCFF12001F0030003C004B
:1052E00035001100DDFFB1FF98FF92FFA2FFC5FF5F
:1052F000F1FF1800340047004F004A0036001B0041
:10530000FEFFE2FFD1FFCCFFC5FFBFFFCDFFF0FFE7
:10531000150030003A002B0011000200FBFFE7FFF0
:10532000CBFFB8FFB7FFBFFFC7FFD2FFE5FFFFFF0F
:1053300013001D001A000700EDFFD7FFC6FFB6FFE0
:10534000B0FFBDFFD4FFE8FFF7FF0600100012001A
:105350000800EBFFC8FFB5FFB6FFB8FFB9FFC9FFF4
:10536000E7FF0100080007000A000F000C00F8FF2B
:10537000D7FFC0FFC5FFD7FFDDFFD9FFD9FFE0FF93
:10538000E9FFF2FFF4FFEBFFD9FFC6FFB8FFB4FF60
:10539000B7FFC2FFCFFFDBFFE6FFF3FFFDFFFFFF1D
:1053A000F7FFE8FFDEFFDDFFDBFFD1FFCAFFCEFF27
:1053B000DEFFEFFFFBFF050016002800320034007F
:1053C0002A001B0017001A0015000700FDFFF7FF59
:1053D000F4FFF3FFF9FF0600140023003600460037
:1053E00045002F0016000400FAFFF8FFF5FFF3FF59
:1053F000FDFF1A003F0053004C00370027001D003E
:1054000014000700FDFF02001500210024003100F8
:1054100044004D004C004400350028001E001300DD
:105420000F00180029003D004D00520050004E00B2
:10543000470035001D000D0011001D001E00120068
:105440000D001D0040004E001B00C1FF98FFF3FF40
:10545000B700F400D6FF57FE6EFE4300D2017C0178
:10546000A4FF05FE24FEF2FFB801BE01F1FFFFFD1F
:10547000C6FD80FF7F01D701390033FEC9FD77FFEC
:10548000A1013102B100A7FE10FE7EFF82010502DC
:105490005D0019FE8CFD5EFFC4016102A60068FE7E
:1054A00004FEF6FF3D0265022600BFFDA8FDEDFFEC
:1054B0001702CD0166FF8AFD56FEFA008E025301E7
:1054C000B9FEB9FD68FFBF01F301AFFF80FDE9FD43
:1054D00078003302160185FEA8FDA1FF2C025302BD
:1054E000EAFFCAFD6FFE00015702CC0029FE8CFDC9
:1054F000B7FF250206029EFFE6FDF3FE7A01690270
:10550000A80057FE28FE2300CB01360143FF6AFEA8
:10551000A8FF5E017001EFFFDBFE90FF20018C0110
:105520004D00F2FE1CFF72002C01630023FF02FFFE
:105530001B000601B600C6FF8EFF5200F00080007F
:1055400094FF69FF2000A40031005CFF45FF2200AA
:10555000FD00E20005007AFFE8FFAF00C000F8FFA1
:1055600037FF36FFC4FF3C004F0029000300EFFF68
:1055700003004F00AF00C400480087FF4AFFE3FF6D
:10558000910069008BFF06FF8DFFA20020019400AF
:10559000CFFFCEFF7400C500430086FF69FFE9FF1F
:1055A00043000900ACFFDCFF8500D8006C00D7FF8A
:1055B000DFFF66009600010038FF26FFDEFF7B005C
:1055C0005700DEFFD8FF4F009A005700E9FFD5FFD4
:1055D00006000600BDFF8FFFC8FF25002A00D0FF90
:1055E0009CFFEAFF6F0093003B00DCFFE2FF23001B
:1055F0002300C7FF89FFCFFF4A005900F0FFADFF2E
:10560000F8FF7B009F004A00DBFFACFFCBFF0F00E1
:10561000400041001100B7FF70FF9AFF3E00D1002B
:10562000AD00DFFF43FF96FF8400F8006D0082FFAE
:1056300036FFC5FF6E006D00EDFFB1FFF7FF5300B1
:105640006B006100730085004500C6FF98FF0B00EA
:105650009F008700B4FF12FF79FF93002B01940095
:105660007FFF37FF1A001F010F01F7FF0EFF3EFFFC
:105670003100CD00720093FF29FFADFFA0000C01A7
:105680007D0084FF21FFB1FF84009B00C9FFF5FE70
:105690001FFF30000101B000B3FF46FFE9FFC30068
:1056A000BA00CAFF0FFF64FF5100A600090060FFA7
:1056B0008DFF5300C3006B00C7FF99FFF4FF3D004F
:1056C0000B00B0FFB1FFFCFF1500DDFFC1FF1800AC
:1056D00089007400D0FF4FFF8BFF35006B00DAFFAD
:1056E0002CFF36FFF3FF93007000CBFF6BFFB1FF81
:1056F00033004D00E9FF86FF89FFD2FFFCFFEBFF7F
:10570000DAFFEFFF0600F9FFE3FFEFFF14002000D0
:10571000F6FFBEFFBEFFF8FF1B00F6FFBBFFBDFF9D
:105720000200470049001500F7FF15003D002F005B
:10573000FAFFDBFFD9FFCFFFB5FFBFFF0400450035
:105740003300DFFFB8FFFDFF65006800EDFF79FF64
:1057500091FF11004F00FDFF82FF74FFE1FF480041
:105760003B00DCFFB1FFEFFF38002600DAFFBAFF95
:10577000D8FFE8FFC2FF9CFFC2FF16002C00DFFF2E
:1057800093FFB9FF2D005C00040090FF8DFFF5FF33
:105790003B0007009EFF87FFE0FF34001E00D7FF9D
:1057A000DDFF3B0076003D00D6FFC4FF1B005E001E
:1057B0002400A5FF73FFC6FF3C0058001D00EBFF4F
:1057C000F9FF1D0025001A001200FFFFCFFFA2FF06
:1057D000B2FF04004D003200CAFF94FFE2FF6200F6
:1057E0007C0005007EFF85FF0E006B0028009DFFFA
:1057F0007BFFF3FF78007400FDFFA6FFCDFF3F00A5
:1058000072002100A3FF85FFDFFF46005000FFFF6D
:10581000BDFFDCFF3A006F004500E8FFB2FFC9FFA3
:10582000FFFF1200FBFFDDFFD4FFE4FF02001900C1
:10583000220020001100F5FFE1FFF3FF1F002A0006
:10584000F8FFBAFFB4FFF5FF40004C001300D5FF8E
:10585000CFFF040039003300F8FFC3FFBDFFDCFFBA
:105860000100180019000600EAFFDFFFF1FF100039
:105870001D000900D6FFAAFFB5FFF3FF2A001F0095
:10588000DBFFA9FFCCFF2C006B004600E3FFA8FF65
:10589000CAFF19003A000700B7FFA2FFDFFF22008E
:1058A0002400F7FFE1FFF8FF15000E00E5FFCCFF35
:1058B000DBFFF0FFE6FFCAFFC9FFF0FF19001D0084
:1058C0000200EAFFF0FF0C001F000E00E9FFD6FF08
:1058D000E0FFFDFF1D0028001200F3FFF3FF1F0093
:1058E000500051001600D5FFD1FF030029000F0022
:1058F000D2FFBFFFF1FF2C002E000700F7FF1600BC
:1059000039002C00F7FFD4FFE3FF03000300E5FF9D
:10591000D3FFE7FF0C001B0013001200230023003D
:10592000FBFFD1FFD5FF040021000300CCFFC8FF1F
:10593000100054003E00E5FFB5FFE5FF32003900DE
:10594000E4FF8FFF9FFF080058004100ECFFC0FFFD
:10595000EEFF43005F002700DDFFCCFFF5FF1C00DA
:105960001500F3FFDFFFECFF0600160013000A002E
:10597000040007000F0011000300F0FFE4FFE0FF48
:10598000E2FFEDFFFFFF0C000800F7FFEDFFFEFF59
:105990001A001B00EEFFB0FF99FFC9FF1800350089
:1059A000FCFFB0FFB2FF12006E005E00F2FF9DFF31
:1059B000B6FF190055002C00D4FFAFFFDBFF1D0020
:1059C0003700250014001A0023001400FEFF040015
:1059D000200029000D00EEFFF9FF250043003600EE
:1059E00016001000280037001A00E8FFD9FFFCFF5E
:1059F00021001B00F7FFECFF10003C003F001B00E4
:105A00000100130033002F000000D7FFE0FF120059
:105A100032001200D0FFBDFFF8FF49005C001D00FE
:105A2000CBFFBEFF060052004B00F6FFAFFFC5FFE5
:105A30002A00790063000800D7FF0A006B0092007B
:105A40005200E7FFB6FFE4FF300047001F00EFFF02
:105A5000E9FF0C003A00500045002C001B00190023
:105A60002200280020000600E9FFDBFFE7FF02001C
:105A700010000B00050010001F001F000900EDFFC3
:105A8000E2FFECFFF3FFE9FFE4FF00002F0044001A
:105A90002B000100F9FF220052004F000A00BEFF58
:105AA000B7FFF9FF37002E00ECFFBFFFE1FF370023
:105AB00067004300F5FFD0FFF0FF24002500F2FF50
:105AC000C6FFCAFFEDFF09000A00FDFFFBFF06004D
:105AD0000700F4FFE3FFECFF03000800F6FFE9FF17
:105AE000FAFF1900250018000E0016001D000D0019
:105AF000F0FFE3FFF1FF0100F6FFD9FFD3FFF4FF52
:105B00001C0020000100E8FFF9FF20002800000031
:105B1000D5FFD8FFFDFF11000400F2FFFAFF1600C9
:105B200022000F00F9FF030021002B001000EFFFFF
:105B3000F0FF100025001200EAFFD8FFEBFF08007D
:105B400015001400140014000C00FDFFF5FFF8FF11
:105B500003000600F8FFE7FFE7FFFAFF0E00110061
:105B60000100F2FFF4FF01000E0016001200FDFF1D
:105B7000E8FFEDFF1200360030000400DEFFE6FF14
:105B800017003F003100FBFFD7FFE6FF12002500A2
:105B90000500D4FFC7FFEBFF1B0029001200F8FF30
:105BA000F9FF110024001B00FAFFD9FFCFFFDFFF30
:105BB000F6FFFCFFEEFFDFFFE4FF02002100200004
:105BC000F9FFD7FFDDFF00001000F6FFCCFFBEFF9E
:105BD000DFFF110026001000EDFFE8FF080027009E
:105BE0002000F7FFD4FFD5FFF1FF0C000B00F4FFFE
:105BF000E1FFEEFF1C00480048001800E7FFE7FF48
:105C0000170041003200F1FFBBFFC5FF0200340066
:105C10002B00F3FFCEFFE8FF22003A001A00E4FF5A
:105C2000CAFFDFFF0000FCFFDAFFC8FFE0FF05004E
:105C30001000FAFFE8FFF7FF16001D000200E3FF67
:105C4000E5FF01000800EBFFD1FFE5FF18002E0083
:105C50001100F0FF05003B004D001D00DCFFD2FFEE
:105C6000030028000500B9FFA3FFE4FF390044004A
:105C70000800D7FFEFFF29003000F1FFAFFFACFFB6
:105C8000D9FFFBFFF1FFD4FFCFFFEEFF100015009F
:105C90000400F4FFF3FFF6FFEBFFD8FFD5FFE1FFB1
:105CA000E6FFDFFFDFFFF4FF17002B0024001000EA
:105CB000040002000100F5FFE4FFDBFFE4FFF7FF53
:105CC0000200FFFFFBFF010011001A001200FFFF9E
:105CD000F2FFF3FFFDFFFDFFEDFFD8FFD4FFE4FF70
:105CE000FCFF08000100F3FFF2FF0900230022007F
:105CF0000400E5FFE1FFF5FF0400F8FFDCFFD4FF3F
:105D0000F3FF2200360023000A00050010001700F0
:105D10000D00FAFFF1FFF8FF01000000FEFF0E008A
:105D200029002E001000F0FFF1FF09001400FCFF15
:105D3000D1FFBAFFCCFFF4FF0C000500F4FFF2FF27
:105D400004001E0028001700F5FFDAFFD4FFE3FF70
:105D5000FDFF0D000800F8FFF1FFFBFF0F0015002D
:105D60000300EBFFE1FFE7FFF6FF0A001600120059
:105D700009000B001900260026001500FDFFF5FFA5
:105D8000040013000F00FCFFECFFE8FFF2FF00002F
:105D90000500FFFFFAFFFAFF030012001D001B00C1
:105DA0000800EFFFEAFF01001A001C000A00FCFFD8
:105DB00005001A001F000E00FCFFF9FF02000A0098
